{
  "_format": "hh-sol-artifact-1",
  "contractName": "Account",
  "sourceName": "contracts/Account.sol",
  "abi": [
    {
      "inputs": [
        {
          "internalType": "string",
          "name": "_initBaseURI",
          "type": "string"
        }
      ],
      "stateMutability": "nonpayable",
      "type": "constructor"
    },
    {
      "anonymous": false,
      "inputs": [
        {
          "indexed": true,
          "internalType": "address",
          "name": "owner",
          "type": "address"
        },
        {
          "indexed": true,
          "internalType": "address",
          "name": "approved",
          "type": "address"
        },
        {
          "indexed": true,
          "internalType": "uint256",
          "name": "tokenId",
          "type": "uint256"
        }
      ],
      "name": "Approval",
      "type": "event"
    },
    {
      "anonymous": false,
      "inputs": [
        {
          "indexed": true,
          "internalType": "address",
          "name": "owner",
          "type": "address"
        },
        {
          "indexed": true,
          "internalType": "address",
          "name": "operator",
          "type": "address"
        },
        {
          "indexed": false,
          "internalType": "bool",
          "name": "approved",
          "type": "bool"
        }
      ],
      "name": "ApprovalForAll",
      "type": "event"
    },
    {
      "anonymous": false,
      "inputs": [
        {
          "indexed": true,
          "internalType": "address",
          "name": "previousOwner",
          "type": "address"
        },
        {
          "indexed": true,
          "internalType": "address",
          "name": "newOwner",
          "type": "address"
        }
      ],
      "name": "OwnershipTransferred",
      "type": "event"
    },
    {
      "anonymous": false,
      "inputs": [
        {
          "indexed": true,
          "internalType": "address",
          "name": "from",
          "type": "address"
        },
        {
          "indexed": true,
          "internalType": "address",
          "name": "to",
          "type": "address"
        },
        {
          "indexed": true,
          "internalType": "uint256",
          "name": "tokenId",
          "type": "uint256"
        }
      ],
      "name": "Transfer",
      "type": "event"
    },
    {
      "inputs": [
        {
          "internalType": "address",
          "name": "to",
          "type": "address"
        },
        {
          "internalType": "uint256",
          "name": "tokenId",
          "type": "uint256"
        }
      ],
      "name": "approve",
      "outputs": [],
      "stateMutability": "nonpayable",
      "type": "function"
    },
    {
      "inputs": [
        {
          "internalType": "uint256",
          "name": "_tokenId",
          "type": "uint256"
        }
      ],
      "name": "associatedDataWith",
      "outputs": [
        {
          "components": [
            {
              "internalType": "address",
              "name": "srcContract",
              "type": "address"
            },
            {
              "internalType": "uint256[]",
              "name": "tokenIds",
              "type": "uint256[]"
            }
          ],
          "internalType": "struct IAccount.OwnData[]",
          "name": "data",
          "type": "tuple[]"
        }
      ],
      "stateMutability": "view",
      "type": "function"
    },
    {
      "inputs": [
        {
          "internalType": "address",
          "name": "owner",
          "type": "address"
        }
      ],
      "name": "balanceOf",
      "outputs": [
        {
          "internalType": "uint256",
          "name": "",
          "type": "uint256"
        }
      ],
      "stateMutability": "view",
      "type": "function"
    },
    {
      "inputs": [],
      "name": "baseURI",
      "outputs": [
        {
          "internalType": "string",
          "name": "",
          "type": "string"
        }
      ],
      "stateMutability": "view",
      "type": "function"
    },
    {
      "inputs": [
        {
          "internalType": "uint256",
          "name": "tokenId",
          "type": "uint256"
        }
      ],
      "name": "getApproved",
      "outputs": [
        {
          "internalType": "address",
          "name": "",
          "type": "address"
        }
      ],
      "stateMutability": "view",
      "type": "function"
    },
    {
      "inputs": [
        {
          "internalType": "address",
          "name": "owner",
          "type": "address"
        },
        {
          "internalType": "address",
          "name": "operator",
          "type": "address"
        }
      ],
      "name": "isApprovedForAll",
      "outputs": [
        {
          "internalType": "bool",
          "name": "",
          "type": "bool"
        }
      ],
      "stateMutability": "view",
      "type": "function"
    },
    {
      "inputs": [
        {
          "internalType": "address",
          "name": "_to",
          "type": "address"
        },
        {
          "internalType": "uint256",
          "name": "_tokenId",
          "type": "uint256"
        }
      ],
      "name": "lock",
      "outputs": [],
      "stateMutability": "nonpayable",
      "type": "function"
    },
    {
      "inputs": [
        {
          "components": [
            {
              "internalType": "address",
              "name": "srcContract",
              "type": "address"
            },
            {
              "internalType": "uint256[]",
              "name": "tokenIds",
              "type": "uint256[]"
            }
          ],
          "internalType": "struct IAccount.OwnData",
          "name": "_data",
          "type": "tuple"
        }
      ],
      "name": "mint",
      "outputs": [],
      "stateMutability": "nonpayable",
      "type": "function"
    },
    {
      "inputs": [],
      "name": "name",
      "outputs": [
        {
          "internalType": "string",
          "name": "",
          "type": "string"
        }
      ],
      "stateMutability": "view",
      "type": "function"
    },
    {
      "inputs": [
        {
          "internalType": "address",
          "name": "",
          "type": "address"
        },
        {
          "internalType": "address",
          "name": "",
          "type": "address"
        },
        {
          "internalType": "uint256[]",
          "name": "",
          "type": "uint256[]"
        },
        {
          "internalType": "uint256[]",
          "name": "",
          "type": "uint256[]"
        },
        {
          "internalType": "bytes",
          "name": "",
          "type": "bytes"
        }
      ],
      "name": "onERC1155BatchReceived",
      "outputs": [
        {
          "internalType": "bytes4",
          "name": "",
          "type": "bytes4"
        }
      ],
      "stateMutability": "nonpayable",
      "type": "function"
    },
    {
      "inputs": [
        {
          "internalType": "address",
          "name": "",
          "type": "address"
        },
        {
          "internalType": "address",
          "name": "",
          "type": "address"
        },
        {
          "internalType": "uint256",
          "name": "",
          "type": "uint256"
        },
        {
          "internalType": "uint256",
          "name": "",
          "type": "uint256"
        },
        {
          "internalType": "bytes",
          "name": "",
          "type": "bytes"
        }
      ],
      "name": "onERC1155Received",
      "outputs": [
        {
          "internalType": "bytes4",
          "name": "",
          "type": "bytes4"
        }
      ],
      "stateMutability": "nonpayable",
      "type": "function"
    },
    {
      "inputs": [
        {
          "internalType": "address",
          "name": "",
          "type": "address"
        },
        {
          "internalType": "address",
          "name": "",
          "type": "address"
        },
        {
          "internalType": "uint256",
          "name": "",
          "type": "uint256"
        },
        {
          "internalType": "bytes",
          "name": "",
          "type": "bytes"
        }
      ],
      "name": "onERC721Received",
      "outputs": [
        {
          "internalType": "bytes4",
          "name": "",
          "type": "bytes4"
        }
      ],
      "stateMutability": "nonpayable",
      "type": "function"
    },
    {
      "inputs": [],
      "name": "owner",
      "outputs": [
        {
          "internalType": "address",
          "name": "",
          "type": "address"
        }
      ],
      "stateMutability": "view",
      "type": "function"
    },
    {
      "inputs": [
        {
          "internalType": "uint256",
          "name": "tokenId",
          "type": "uint256"
        }
      ],
      "name": "ownerOf",
      "outputs": [
        {
          "internalType": "address",
          "name": "",
          "type": "address"
        }
      ],
      "stateMutability": "view",
      "type": "function"
    },
    {
      "inputs": [],
      "name": "renounceOwnership",
      "outputs": [],
      "stateMutability": "nonpayable",
      "type": "function"
    },
    {
      "inputs": [
        {
          "internalType": "address",
          "name": "from",
          "type": "address"
        },
        {
          "internalType": "address",
          "name": "to",
          "type": "address"
        },
        {
          "internalType": "uint256",
          "name": "tokenId",
          "type": "uint256"
        }
      ],
      "name": "safeTransferFrom",
      "outputs": [],
      "stateMutability": "nonpayable",
      "type": "function"
    },
    {
      "inputs": [
        {
          "internalType": "address",
          "name": "from",
          "type": "address"
        },
        {
          "internalType": "address",
          "name": "to",
          "type": "address"
        },
        {
          "internalType": "uint256",
          "name": "tokenId",
          "type": "uint256"
        },
        {
          "internalType": "bytes",
          "name": "data",
          "type": "bytes"
        }
      ],
      "name": "safeTransferFrom",
      "outputs": [],
      "stateMutability": "nonpayable",
      "type": "function"
    },
    {
      "inputs": [
        {
          "internalType": "address",
          "name": "operator",
          "type": "address"
        },
        {
          "internalType": "bool",
          "name": "approved",
          "type": "bool"
        }
      ],
      "name": "setApprovalForAll",
      "outputs": [],
      "stateMutability": "nonpayable",
      "type": "function"
    },
    {
      "inputs": [
        {
          "internalType": "string",
          "name": "_newBaseURI",
          "type": "string"
        }
      ],
      "name": "setBaseURI",
      "outputs": [],
      "stateMutability": "nonpayable",
      "type": "function"
    },
    {
      "inputs": [
        {
          "internalType": "bytes4",
          "name": "interfaceId",
          "type": "bytes4"
        }
      ],
      "name": "supportsInterface",
      "outputs": [
        {
          "internalType": "bool",
          "name": "",
          "type": "bool"
        }
      ],
      "stateMutability": "view",
      "type": "function"
    },
    {
      "inputs": [],
      "name": "symbol",
      "outputs": [
        {
          "internalType": "string",
          "name": "",
          "type": "string"
        }
      ],
      "stateMutability": "view",
      "type": "function"
    },
    {
      "inputs": [
        {
          "internalType": "uint256",
          "name": "tokenId",
          "type": "uint256"
        }
      ],
      "name": "tokenURI",
      "outputs": [
        {
          "internalType": "string",
          "name": "",
          "type": "string"
        }
      ],
      "stateMutability": "view",
      "type": "function"
    },
    {
      "inputs": [
        {
          "internalType": "address",
          "name": "from",
          "type": "address"
        },
        {
          "internalType": "address",
          "name": "to",
          "type": "address"
        },
        {
          "internalType": "uint256",
          "name": "tokenId",
          "type": "uint256"
        }
      ],
      "name": "transferFrom",
      "outputs": [],
      "stateMutability": "nonpayable",
      "type": "function"
    },
    {
      "inputs": [
        {
          "internalType": "address",
          "name": "newOwner",
          "type": "address"
        }
      ],
      "name": "transferOwnership",
      "outputs": [],
      "stateMutability": "nonpayable",
      "type": "function"
    }
  ],
  "bytecode": "0x60806040523480156200001157600080fd5b5060405162004214380380620042148339818101604052810190620000379190620003a4565b6040518060400160405280600781526020017f4163636f756e74000000000000000000000000000000000000000000000000008152506040518060400160405280600281526020017f41430000000000000000000000000000000000000000000000000000000000008152508160009081620000b4919062000640565b508060019081620000c6919062000640565b505050620000e9620000dd6200011860201b60201c565b6200012060201b60201c565b620001006007620001e660201b620011ce1760201c565b6200011181620001fc60201b60201c565b5062000727565b600033905090565b6000600660009054906101000a900473ffffffffffffffffffffffffffffffffffffffff16905081600660006101000a81548173ffffffffffffffffffffffffffffffffffffffff021916908373ffffffffffffffffffffffffffffffffffffffff1602179055508173ffffffffffffffffffffffffffffffffffffffff168173ffffffffffffffffffffffffffffffffffffffff167f8be0079c531659141344cd1fd0a4f28419497f9722a3daafe3b4186f6b6457e060405160405180910390a35050565b6001816000016000828254019250508190555050565b80600890816200020d919062000640565b5050565b6000604051905090565b600080fd5b600080fd5b600080fd5b600080fd5b6000601f19601f8301169050919050565b7f4e487b7100000000000000000000000000000000000000000000000000000000600052604160045260246000fd5b6200027a826200022f565b810181811067ffffffffffffffff821117156200029c576200029b62000240565b5b80604052505050565b6000620002b162000211565b9050620002bf82826200026f565b919050565b600067ffffffffffffffff821115620002e257620002e162000240565b5b620002ed826200022f565b9050602081019050919050565b60005b838110156200031a578082015181840152602081019050620002fd565b60008484015250505050565b60006200033d6200033784620002c4565b620002a5565b9050828152602081018484840111156200035c576200035b6200022a565b5b62000369848285620002fa565b509392505050565b600082601f83011262000389576200038862000225565b5b81516200039b84826020860162000326565b91505092915050565b600060208284031215620003bd57620003bc6200021b565b5b600082015167ffffffffffffffff811115620003de57620003dd62000220565b5b620003ec8482850162000371565b91505092915050565b600081519050919050565b7f4e487b7100000000000000000000000000000000000000000000000000000000600052602260045260246000fd5b600060028204905060018216806200044857607f821691505b6020821081036200045e576200045d62000400565b5b50919050565b60008190508160005260206000209050919050565b60006020601f8301049050919050565b600082821b905092915050565b600060088302620004c87fffffffffffffffffffffffffffffffffffffffffffffffffffffffffffffffff8262000489565b620004d4868362000489565b95508019841693508086168417925050509392505050565b6000819050919050565b6000819050919050565b6000620005216200051b6200051584620004ec565b620004f6565b620004ec565b9050919050565b6000819050919050565b6200053d8362000500565b620005556200054c8262000528565b84845462000496565b825550505050565b600090565b6200056c6200055d565b6200057981848462000532565b505050565b5b81811015620005a1576200059560008262000562565b6001810190506200057f565b5050565b601f821115620005f057620005ba8162000464565b620005c58462000479565b81016020851015620005d5578190505b620005ed620005e48562000479565b8301826200057e565b50505b505050565b600082821c905092915050565b60006200061560001984600802620005f5565b1980831691505092915050565b600062000630838362000602565b9150826002028217905092915050565b6200064b82620003f5565b67ffffffffffffffff81111562000667576200066662000240565b5b6200067382546200042f565b62000680828285620005a5565b600060209050601f831160018114620006b85760008415620006a3578287015190505b620006af858262000622565b8655506200071f565b601f198416620006c88662000464565b60005b82811015620006f257848901518255600182019150602085019450602081019050620006cb565b868310156200071257848901516200070e601f89168262000602565b8355505b6001600288020188555050505b505050505050565b613add80620007376000396000f3fe608060405234801561001057600080fd5b50600436106101585760003560e01c8063715018a6116100c3578063bc197c811161007c578063bc197c81146103af578063c87b56dd146103df578063dbe031091461040f578063e985e9c51461043f578063f23a6e611461046f578063f2fde38b1461049f57610158565b8063715018a6146103155780638da5cb5b1461031f57806395d89b411461033d578063a22cb4651461035b578063b2f3dbc514610377578063b88d4fde1461039357610158565b8063282d3fdf11610115578063282d3fdf1461024357806342842e0e1461025f57806355f804b31461027b5780636352211e146102975780636c0360eb146102c757806370a08231146102e557610158565b806301ffc9a71461015d57806306fdde031461018d578063081812fc146101ab578063095ea7b3146101db578063150b7a02146101f757806323b872dd14610227575b600080fd5b6101776004803603810190610172919061202e565b6104bb565b6040516101849190612076565b60405180910390f35b61019561059d565b6040516101a29190612121565b60405180910390f35b6101c560048036038101906101c09190612179565b61062f565b6040516101d291906121e7565b60405180910390f35b6101f560048036038101906101f0919061222e565b610675565b005b610211600480360381019061020c91906123a3565b61078c565b60405161021e9190612435565b60405180910390f35b610241600480360381019061023c9190612450565b6107a0565b005b61025d6004803603810190610258919061222e565b610800565b005b61027960048036038101906102749190612450565b6108fa565b005b61029560048036038101906102909190612544565b61091a565b005b6102b160048036038101906102ac9190612179565b61092d565b6040516102be91906121e7565b60405180910390f35b6102cf6109de565b6040516102dc9190612121565b60405180910390f35b6102ff60048036038101906102fa919061258d565b610a6c565b60405161030c91906125c9565b60405180910390f35b61031d610b23565b005b610327610b37565b60405161033491906121e7565b60405180910390f35b610345610b61565b6040516103529190612121565b60405180910390f35b61037560048036038101906103709190612610565b610bf3565b005b610391600480360381019061038c919061278e565b610c09565b005b6103ad60048036038101906103a891906123a3565b610ea3565b005b6103c960048036038101906103c491906127d7565b610f05565b6040516103d69190612435565b60405180910390f35b6103f960048036038101906103f49190612179565b610f1a565b6040516104069190612121565b60405180910390f35b61042960048036038101906104249190612179565b610f82565b6040516104369190612a72565b60405180910390f35b61045960048036038101906104549190612a94565b6110a2565b6040516104669190612076565b60405180910390f35b61048960048036038101906104849190612ad4565b611136565b6040516104969190612435565b60405180910390f35b6104b960048036038101906104b4919061258d565b61114b565b005b60007f80ac58cd000000000000000000000000000000000000000000000000000000007bffffffffffffffffffffffffffffffffffffffffffffffffffffffff1916827bffffffffffffffffffffffffffffffffffffffffffffffffffffffff1916148061058657507f5b5e139f000000000000000000000000000000000000000000000000000000007bffffffffffffffffffffffffffffffffffffffffffffffffffffffff1916827bffffffffffffffffffffffffffffffffffffffffffffffffffffffff1916145b806105965750610595826111e4565b5b9050919050565b6060600080546105ac90612b9a565b80601f01602080910402602001604051908101604052809291908181526020018280546105d890612b9a565b80156106255780601f106105fa57610100808354040283529160200191610625565b820191906000526020600020905b81548152906001019060200180831161060857829003601f168201915b5050505050905090565b600061063a8261124e565b6004600083815260200190815260200160002060009054906101000a900473ffffffffffffffffffffffffffffffffffffffff169050919050565b60006106808261092d565b90508073ffffffffffffffffffffffffffffffffffffffff168373ffffffffffffffffffffffffffffffffffffffff16036106f0576040517f08c379a00000000000000000000000000000000000000000000000000000000081526004016106e790612c3d565b60405180910390fd5b8073ffffffffffffffffffffffffffffffffffffffff1661070f611299565b73ffffffffffffffffffffffffffffffffffffffff16148061073e575061073d81610738611299565b6110a2565b5b61077d576040517f08c379a000000000000000000000000000000000000000000000000000000000815260040161077490612ccf565b60405180910390fd5b61078783836112a1565b505050565b600063150b7a0260e01b9050949350505050565b6107b16107ab611299565b8261135a565b6107f0576040517f08c379a00000000000000000000000000000000000000000000000000000000081526004016107e790612d61565b60405180910390fd5b6107fb8383836113ef565b505050565b600061080b8261062f565b9050600073ffffffffffffffffffffffffffffffffffffffff168173ffffffffffffffffffffffffffffffffffffffff160361087c576040517f08c379a000000000000000000000000000000000000000000000000000000000815260040161087390612dcd565b60405180910390fd5b3373ffffffffffffffffffffffffffffffffffffffff168173ffffffffffffffffffffffffffffffffffffffff16036108ea576040517f08c379a00000000000000000000000000000000000000000000000000000000081526004016108e190612e39565b60405180910390fd5b6108f53384846108fa565b505050565b61091583838360405180602001604052806000815250610ea3565b505050565b80600890816109299190613005565b5050565b6000806002600084815260200190815260200160002060009054906101000a900473ffffffffffffffffffffffffffffffffffffffff169050600073ffffffffffffffffffffffffffffffffffffffff168173ffffffffffffffffffffffffffffffffffffffff16036109d5576040517f08c379a00000000000000000000000000000000000000000000000000000000081526004016109cc90613123565b60405180910390fd5b80915050919050565b600880546109eb90612b9a565b80601f0160208091040260200160405190810160405280929190818152602001828054610a1790612b9a565b8015610a645780601f10610a3957610100808354040283529160200191610a64565b820191906000526020600020905b815481529060010190602001808311610a4757829003601f168201915b505050505081565b60008073ffffffffffffffffffffffffffffffffffffffff168273ffffffffffffffffffffffffffffffffffffffff1603610adc576040517f08c379a0000000000000000000000000000000000000000000000000000000008152600401610ad3906131b5565b60405180910390fd5b600360008373ffffffffffffffffffffffffffffffffffffffff1673ffffffffffffffffffffffffffffffffffffffff168152602001908152602001600020549050919050565b610b2b611655565b610b3560006116d3565b565b6000600660009054906101000a900473ffffffffffffffffffffffffffffffffffffffff16905090565b606060018054610b7090612b9a565b80601f0160208091040260200160405190810160405280929190818152602001828054610b9c90612b9a565b8015610be95780601f10610bbe57610100808354040283529160200191610be9565b820191906000526020600020905b815481529060010190602001808311610bcc57829003601f168201915b5050505050905090565b610c05610bfe611299565b8383611799565b5050565b610c1c33610c176007611905565b611913565b6000816000015190508073ffffffffffffffffffffffffffffffffffffffff1663e985e9c533306040518363ffffffff1660e01b8152600401610c609291906131d5565b602060405180830381865afa158015610c7d573d6000803e3d6000fd5b505050506040513d601f19601f82011682018060405250810190610ca19190613213565b610ce0576040517f08c379a0000000000000000000000000000000000000000000000000000000008152600401610cd7906132b2565b60405180910390fd5b6000600267ffffffffffffffff811115610cfd57610cfc612278565b5b604051908082528060200260200182016040528015610d2b5781602001602082028036833780820191505090505b50905060005b836020015151811015610d72576001828281518110610d5357610d526132d2565b5b6020026020010181815250508080610d6a90613330565b915050610d31565b508173ffffffffffffffffffffffffffffffffffffffff16632eb2c2d633308660200151856040518563ffffffff1660e01b8152600401610db6949392919061341e565b600060405180830381600087803b158015610dd057600080fd5b505af1158015610de4573d6000803e3d6000fd5b5050505060096000610df66007611905565b815260200190815260200160002083908060018154018082558091505060019003906000526020600020906002020160009091909190915060008201518160000160006101000a81548173ffffffffffffffffffffffffffffffffffffffff021916908373ffffffffffffffffffffffffffffffffffffffff1602179055506020820151816001019080519060200190610e91929190611f58565b505050610e9e60076111ce565b505050565b610eb4610eae611299565b8361135a565b610ef3576040517f08c379a0000000000000000000000000000000000000000000000000000000008152600401610eea90612d61565b60405180910390fd5b610eff84848484611931565b50505050565b600063bc197c8160e01b905095945050505050565b6060610f258261124e565b6000610f2f61198d565b90506000815111610f4f5760405180602001604052806000815250610f7a565b80610f59846119a4565b604051602001610f6a9291906134c0565b6040516020818303038152906040525b915050919050565b606060096000838152602001908152602001600020805480602002602001604051908101604052809291908181526020016000905b8282101561109757838290600052602060002090600202016040518060400160405290816000820160009054906101000a900473ffffffffffffffffffffffffffffffffffffffff1673ffffffffffffffffffffffffffffffffffffffff1673ffffffffffffffffffffffffffffffffffffffff1681526020016001820180548060200260200160405190810160405280929190818152602001828054801561107f57602002820191906000526020600020905b81548152602001906001019080831161106b575b50505050508152505081526020019060010190610fb7565b505050509050919050565b6000600560008473ffffffffffffffffffffffffffffffffffffffff1673ffffffffffffffffffffffffffffffffffffffff16815260200190815260200160002060008373ffffffffffffffffffffffffffffffffffffffff1673ffffffffffffffffffffffffffffffffffffffff16815260200190815260200160002060009054906101000a900460ff16905092915050565b600063f23a6e6160e01b905095945050505050565b611153611655565b600073ffffffffffffffffffffffffffffffffffffffff168173ffffffffffffffffffffffffffffffffffffffff16036111c2576040517f08c379a00000000000000000000000000000000000000000000000000000000081526004016111b990613556565b60405180910390fd5b6111cb816116d3565b50565b6001816000016000828254019250508190555050565b60007f01ffc9a7000000000000000000000000000000000000000000000000000000007bffffffffffffffffffffffffffffffffffffffffffffffffffffffff1916827bffffffffffffffffffffffffffffffffffffffffffffffffffffffff1916149050919050565b61125781611b04565b611296576040517f08c379a000000000000000000000000000000000000000000000000000000000815260040161128d90613123565b60405180910390fd5b50565b600033905090565b816004600083815260200190815260200160002060006101000a81548173ffffffffffffffffffffffffffffffffffffffff021916908373ffffffffffffffffffffffffffffffffffffffff160217905550808273ffffffffffffffffffffffffffffffffffffffff166113148361092d565b73ffffffffffffffffffffffffffffffffffffffff167f8c5be1e5ebec7d5bd14f71427d1e84f3dd0314c0f7b2291e5b200ac8c7c3b92560405160405180910390a45050565b6000806113668361092d565b90508073ffffffffffffffffffffffffffffffffffffffff168473ffffffffffffffffffffffffffffffffffffffff1614806113a857506113a781856110a2565b5b806113e657508373ffffffffffffffffffffffffffffffffffffffff166113ce8461062f565b73ffffffffffffffffffffffffffffffffffffffff16145b91505092915050565b8273ffffffffffffffffffffffffffffffffffffffff1661140f8261092d565b73ffffffffffffffffffffffffffffffffffffffff1614611465576040517f08c379a000000000000000000000000000000000000000000000000000000000815260040161145c906135e8565b60405180910390fd5b600073ffffffffffffffffffffffffffffffffffffffff168273ffffffffffffffffffffffffffffffffffffffff16036114d4576040517f08c379a00000000000000000000000000000000000000000000000000000000081526004016114cb9061367a565b60405180910390fd5b6114df838383611b70565b6114ea6000826112a1565b6001600360008573ffffffffffffffffffffffffffffffffffffffff1673ffffffffffffffffffffffffffffffffffffffff168152602001908152602001600020600082825461153a919061369a565b925050819055506001600360008473ffffffffffffffffffffffffffffffffffffffff1673ffffffffffffffffffffffffffffffffffffffff168152602001908152602001600020600082825461159191906136ce565b92505081905550816002600083815260200190815260200160002060006101000a81548173ffffffffffffffffffffffffffffffffffffffff021916908373ffffffffffffffffffffffffffffffffffffffff160217905550808273ffffffffffffffffffffffffffffffffffffffff168473ffffffffffffffffffffffffffffffffffffffff167fddf252ad1be2c89b69c2b068fc378daa952ba7f163c4a11628f55a4df523b3ef60405160405180910390a4611650838383611b75565b505050565b61165d611299565b73ffffffffffffffffffffffffffffffffffffffff1661167b610b37565b73ffffffffffffffffffffffffffffffffffffffff16146116d1576040517f08c379a00000000000000000000000000000000000000000000000000000000081526004016116c89061374e565b60405180910390fd5b565b6000600660009054906101000a900473ffffffffffffffffffffffffffffffffffffffff16905081600660006101000a81548173ffffffffffffffffffffffffffffffffffffffff021916908373ffffffffffffffffffffffffffffffffffffffff1602179055508173ffffffffffffffffffffffffffffffffffffffff168173ffffffffffffffffffffffffffffffffffffffff167f8be0079c531659141344cd1fd0a4f28419497f9722a3daafe3b4186f6b6457e060405160405180910390a35050565b8173ffffffffffffffffffffffffffffffffffffffff168373ffffffffffffffffffffffffffffffffffffffff1603611807576040517f08c379a00000000000000000000000000000000000000000000000000000000081526004016117fe906137ba565b60405180910390fd5b80600560008573ffffffffffffffffffffffffffffffffffffffff1673ffffffffffffffffffffffffffffffffffffffff16815260200190815260200160002060008473ffffffffffffffffffffffffffffffffffffffff1673ffffffffffffffffffffffffffffffffffffffff16815260200190815260200160002060006101000a81548160ff0219169083151502179055508173ffffffffffffffffffffffffffffffffffffffff168373ffffffffffffffffffffffffffffffffffffffff167f17307eab39ab6107e8899845ad3d59bd9653f200f220920489ca2b5937696c31836040516118f89190612076565b60405180910390a3505050565b600081600001549050919050565b61192d828260405180602001604052806000815250611b7a565b5050565b61193c8484846113ef565b61194884848484611bd5565b611987576040517f08c379a000000000000000000000000000000000000000000000000000000000815260040161197e9061384c565b60405180910390fd5b50505050565b606060405180602001604052806000815250905090565b6060600082036119eb576040518060400160405280600181526020017f30000000000000000000000000000000000000000000000000000000000000008152509050611aff565b600082905060005b60008214611a1d578080611a0690613330565b915050600a82611a16919061389b565b91506119f3565b60008167ffffffffffffffff811115611a3957611a38612278565b5b6040519080825280601f01601f191660200182016040528015611a6b5781602001600182028036833780820191505090505b5090505b60008514611af857600182611a84919061369a565b9150600a85611a9391906138cc565b6030611a9f91906136ce565b60f81b818381518110611ab557611ab46132d2565b5b60200101907effffffffffffffffffffffffffffffffffffffffffffffffffffffffffffff1916908160001a905350600a85611af1919061389b565b9450611a6f565b8093505050505b919050565b60008073ffffffffffffffffffffffffffffffffffffffff166002600084815260200190815260200160002060009054906101000a900473ffffffffffffffffffffffffffffffffffffffff1673ffffffffffffffffffffffffffffffffffffffff1614159050919050565b505050565b505050565b611b848383611d5c565b611b916000848484611bd5565b611bd0576040517f08c379a0000000000000000000000000000000000000000000000000000000008152600401611bc79061384c565b60405180910390fd5b505050565b6000611bf68473ffffffffffffffffffffffffffffffffffffffff16611f35565b15611d4f578373ffffffffffffffffffffffffffffffffffffffff1663150b7a02611c1f611299565b8786866040518563ffffffff1660e01b8152600401611c419493929190613941565b6020604051808303816000875af1925050508015611c7d57506040513d601f19601f82011682018060405250810190611c7a91906139a2565b60015b611cff573d8060008114611cad576040519150601f19603f3d011682016040523d82523d6000602084013e611cb2565b606091505b506000815103611cf7576040517f08c379a0000000000000000000000000000000000000000000000000000000008152600401611cee9061384c565b60405180910390fd5b805181602001fd5b63150b7a0260e01b7bffffffffffffffffffffffffffffffffffffffffffffffffffffffff1916817bffffffffffffffffffffffffffffffffffffffffffffffffffffffff191614915050611d54565b600190505b949350505050565b600073ffffffffffffffffffffffffffffffffffffffff168273ffffffffffffffffffffffffffffffffffffffff1603611dcb576040517f08c379a0000000000000000000000000000000000000000000000000000000008152600401611dc290613a1b565b60405180910390fd5b611dd481611b04565b15611e14576040517f08c379a0000000000000000000000000000000000000000000000000000000008152600401611e0b90613a87565b60405180910390fd5b611e2060008383611b70565b6001600360008473ffffffffffffffffffffffffffffffffffffffff1673ffffffffffffffffffffffffffffffffffffffff1681526020019081526020016000206000828254611e7091906136ce565b92505081905550816002600083815260200190815260200160002060006101000a81548173ffffffffffffffffffffffffffffffffffffffff021916908373ffffffffffffffffffffffffffffffffffffffff160217905550808273ffffffffffffffffffffffffffffffffffffffff16600073ffffffffffffffffffffffffffffffffffffffff167fddf252ad1be2c89b69c2b068fc378daa952ba7f163c4a11628f55a4df523b3ef60405160405180910390a4611f3160008383611b75565b5050565b6000808273ffffffffffffffffffffffffffffffffffffffff163b119050919050565b828054828255906000526020600020908101928215611f94579160200282015b82811115611f93578251825591602001919060010190611f78565b5b509050611fa19190611fa5565b5090565b5b80821115611fbe576000816000905550600101611fa6565b5090565b6000604051905090565b600080fd5b600080fd5b60007fffffffff0000000000000000000000000000000000000000000000000000000082169050919050565b61200b81611fd6565b811461201657600080fd5b50565b60008135905061202881612002565b92915050565b60006020828403121561204457612043611fcc565b5b600061205284828501612019565b91505092915050565b60008115159050919050565b6120708161205b565b82525050565b600060208201905061208b6000830184612067565b92915050565b600081519050919050565b600082825260208201905092915050565b60005b838110156120cb5780820151818401526020810190506120b0565b60008484015250505050565b6000601f19601f8301169050919050565b60006120f382612091565b6120fd818561209c565b935061210d8185602086016120ad565b612116816120d7565b840191505092915050565b6000602082019050818103600083015261213b81846120e8565b905092915050565b6000819050919050565b61215681612143565b811461216157600080fd5b50565b6000813590506121738161214d565b92915050565b60006020828403121561218f5761218e611fcc565b5b600061219d84828501612164565b91505092915050565b600073ffffffffffffffffffffffffffffffffffffffff82169050919050565b60006121d1826121a6565b9050919050565b6121e1816121c6565b82525050565b60006020820190506121fc60008301846121d8565b92915050565b61220b816121c6565b811461221657600080fd5b50565b60008135905061222881612202565b92915050565b6000806040838503121561224557612244611fcc565b5b600061225385828601612219565b925050602061226485828601612164565b9150509250929050565b600080fd5b600080fd5b7f4e487b7100000000000000000000000000000000000000000000000000000000600052604160045260246000fd5b6122b0826120d7565b810181811067ffffffffffffffff821117156122cf576122ce612278565b5b80604052505050565b60006122e2611fc2565b90506122ee82826122a7565b919050565b600067ffffffffffffffff82111561230e5761230d612278565b5b612317826120d7565b9050602081019050919050565b82818337600083830152505050565b6000612346612341846122f3565b6122d8565b90508281526020810184848401111561236257612361612273565b5b61236d848285612324565b509392505050565b600082601f83011261238a5761238961226e565b5b813561239a848260208601612333565b91505092915050565b600080600080608085870312156123bd576123bc611fcc565b5b60006123cb87828801612219565b94505060206123dc87828801612219565b93505060406123ed87828801612164565b925050606085013567ffffffffffffffff81111561240e5761240d611fd1565b5b61241a87828801612375565b91505092959194509250565b61242f81611fd6565b82525050565b600060208201905061244a6000830184612426565b92915050565b60008060006060848603121561246957612468611fcc565b5b600061247786828701612219565b935050602061248886828701612219565b925050604061249986828701612164565b9150509250925092565b600067ffffffffffffffff8211156124be576124bd612278565b5b6124c7826120d7565b9050602081019050919050565b60006124e76124e2846124a3565b6122d8565b90508281526020810184848401111561250357612502612273565b5b61250e848285612324565b509392505050565b600082601f83011261252b5761252a61226e565b5b813561253b8482602086016124d4565b91505092915050565b60006020828403121561255a57612559611fcc565b5b600082013567ffffffffffffffff81111561257857612577611fd1565b5b61258484828501612516565b91505092915050565b6000602082840312156125a3576125a2611fcc565b5b60006125b184828501612219565b91505092915050565b6125c381612143565b82525050565b60006020820190506125de60008301846125ba565b92915050565b6125ed8161205b565b81146125f857600080fd5b50565b60008135905061260a816125e4565b92915050565b6000806040838503121561262757612626611fcc565b5b600061263585828601612219565b9250506020612646858286016125fb565b9150509250929050565b600080fd5b600080fd5b600067ffffffffffffffff82111561267557612674612278565b5b602082029050602081019050919050565b600080fd5b600061269e6126998461265a565b6122d8565b905080838252602082019050602084028301858111156126c1576126c0612686565b5b835b818110156126ea57806126d68882612164565b8452602084019350506020810190506126c3565b5050509392505050565b600082601f8301126127095761270861226e565b5b813561271984826020860161268b565b91505092915050565b60006040828403121561273857612737612650565b5b61274260406122d8565b9050600061275284828501612219565b600083015250602082013567ffffffffffffffff81111561277657612775612655565b5b612782848285016126f4565b60208301525092915050565b6000602082840312156127a4576127a3611fcc565b5b600082013567ffffffffffffffff8111156127c2576127c1611fd1565b5b6127ce84828501612722565b91505092915050565b600080600080600060a086880312156127f3576127f2611fcc565b5b600061280188828901612219565b955050602061281288828901612219565b945050604086013567ffffffffffffffff81111561283357612832611fd1565b5b61283f888289016126f4565b935050606086013567ffffffffffffffff8111156128605761285f611fd1565b5b61286c888289016126f4565b925050608086013567ffffffffffffffff81111561288d5761288c611fd1565b5b61289988828901612375565b9150509295509295909350565b600081519050919050565b600082825260208201905092915050565b6000819050602082019050919050565b6128db816121c6565b82525050565b600081519050919050565b600082825260208201905092915050565b6000819050602082019050919050565b61291681612143565b82525050565b6000612928838361290d565b60208301905092915050565b6000602082019050919050565b600061294c826128e1565b61295681856128ec565b9350612961836128fd565b8060005b83811015612992578151612979888261291c565b975061298483612934565b925050600181019050612965565b5085935050505092915050565b60006040830160008301516129b760008601826128d2565b50602083015184820360208601526129cf8282612941565b9150508091505092915050565b60006129e8838361299f565b905092915050565b6000602082019050919050565b6000612a08826128a6565b612a1281856128b1565b935083602082028501612a24856128c2565b8060005b85811015612a605784840389528151612a4185826129dc565b9450612a4c836129f0565b925060208a01995050600181019050612a28565b50829750879550505050505092915050565b60006020820190508181036000830152612a8c81846129fd565b905092915050565b60008060408385031215612aab57612aaa611fcc565b5b6000612ab985828601612219565b9250506020612aca85828601612219565b9150509250929050565b600080600080600060a08688031215612af057612aef611fcc565b5b6000612afe88828901612219565b9550506020612b0f88828901612219565b9450506040612b2088828901612164565b9350506060612b3188828901612164565b925050608086013567ffffffffffffffff811115612b5257612b51611fd1565b5b612b5e88828901612375565b9150509295509295909350565b7f4e487b7100000000000000000000000000000000000000000000000000000000600052602260045260246000fd5b60006002820490506001821680612bb257607f821691505b602082108103612bc557612bc4612b6b565b5b50919050565b7f4552433732313a20617070726f76616c20746f2063757272656e74206f776e6560008201527f7200000000000000000000000000000000000000000000000000000000000000602082015250565b6000612c2760218361209c565b9150612c3282612bcb565b604082019050919050565b60006020820190508181036000830152612c5681612c1a565b9050919050565b7f4552433732313a20617070726f76652063616c6c6572206973206e6f7420746f60008201527f6b656e206f776e6572206e6f7220617070726f76656420666f7220616c6c0000602082015250565b6000612cb9603e8361209c565b9150612cc482612c5d565b604082019050919050565b60006020820190508181036000830152612ce881612cac565b9050919050565b7f4552433732313a2063616c6c6572206973206e6f7420746f6b656e206f776e6560008201527f72206e6f7220617070726f766564000000000000000000000000000000000000602082015250565b6000612d4b602e8361209c565b9150612d5682612cef565b604082019050919050565b60006020820190508181036000830152612d7a81612d3e565b9050919050565b7f4163636f756e743a204163636f756e74206e6f7420617070726f766564000000600082015250565b6000612db7601d8361209c565b9150612dc282612d81565b602082019050919050565b60006020820190508181036000830152612de681612daa565b9050919050565b7f4163636f756e743a204f776e657220646f6573206e6f74206d61746368000000600082015250565b6000612e23601d8361209c565b9150612e2e82612ded565b602082019050919050565b60006020820190508181036000830152612e5281612e16565b9050919050565b60008190508160005260206000209050919050565b60006020601f8301049050919050565b600082821b905092915050565b600060088302612ebb7fffffffffffffffffffffffffffffffffffffffffffffffffffffffffffffffff82612e7e565b612ec58683612e7e565b95508019841693508086168417925050509392505050565b6000819050919050565b6000612f02612efd612ef884612143565b612edd565b612143565b9050919050565b6000819050919050565b612f1c83612ee7565b612f30612f2882612f09565b848454612e8b565b825550505050565b600090565b612f45612f38565b612f50818484612f13565b505050565b5b81811015612f7457612f69600082612f3d565b600181019050612f56565b5050565b601f821115612fb957612f8a81612e59565b612f9384612e6e565b81016020851015612fa2578190505b612fb6612fae85612e6e565b830182612f55565b50505b505050565b600082821c905092915050565b6000612fdc60001984600802612fbe565b1980831691505092915050565b6000612ff58383612fcb565b9150826002028217905092915050565b61300e82612091565b67ffffffffffffffff81111561302757613026612278565b5b6130318254612b9a565b61303c828285612f78565b600060209050601f83116001811461306f576000841561305d578287015190505b6130678582612fe9565b8655506130cf565b601f19841661307d86612e59565b60005b828110156130a557848901518255600182019150602085019450602081019050613080565b868310156130c257848901516130be601f891682612fcb565b8355505b6001600288020188555050505b505050505050565b7f4552433732313a20696e76616c696420746f6b656e2049440000000000000000600082015250565b600061310d60188361209c565b9150613118826130d7565b602082019050919050565b6000602082019050818103600083015261313c81613100565b9050919050565b7f4552433732313a2061646472657373207a65726f206973206e6f74206120766160008201527f6c6964206f776e65720000000000000000000000000000000000000000000000602082015250565b600061319f60298361209c565b91506131aa82613143565b604082019050919050565b600060208201905081810360008301526131ce81613192565b9050919050565b60006040820190506131ea60008301856121d8565b6131f760208301846121d8565b9392505050565b60008151905061320d816125e4565b92915050565b60006020828403121561322957613228611fcc565b5b6000613237848285016131fe565b91505092915050565b7f4163636f756e743a205468697320636f6e747261637420686173206e6f74206260008201527f65656e20617070726f7665640000000000000000000000000000000000000000602082015250565b600061329c602c8361209c565b91506132a782613240565b604082019050919050565b600060208201905081810360008301526132cb8161328f565b9050919050565b7f4e487b7100000000000000000000000000000000000000000000000000000000600052603260045260246000fd5b7f4e487b7100000000000000000000000000000000000000000000000000000000600052601160045260246000fd5b600061333b82612143565b91507fffffffffffffffffffffffffffffffffffffffffffffffffffffffffffffffff820361336d5761336c613301565b5b600182019050919050565b600082825260208201905092915050565b6000613394826128e1565b61339e8185613378565b93506133a9836128fd565b8060005b838110156133da5781516133c1888261291c565b97506133cc83612934565b9250506001810190506133ad565b5085935050505092915050565b600082825260208201905092915050565b50565b60006134086000836133e7565b9150613413826133f8565b600082019050919050565b600060a08201905061343360008301876121d8565b61344060208301866121d8565b81810360408301526134528185613389565b905081810360608301526134668184613389565b90508181036080830152613479816133fb565b905095945050505050565b600081905092915050565b600061349a82612091565b6134a48185613484565b93506134b48185602086016120ad565b80840191505092915050565b60006134cc828561348f565b91506134d8828461348f565b91508190509392505050565b7f4f776e61626c653a206e6577206f776e657220697320746865207a65726f206160008201527f6464726573730000000000000000000000000000000000000000000000000000602082015250565b600061354060268361209c565b915061354b826134e4565b604082019050919050565b6000602082019050818103600083015261356f81613533565b9050919050565b7f4552433732313a207472616e736665722066726f6d20696e636f72726563742060008201527f6f776e6572000000000000000000000000000000000000000000000000000000602082015250565b60006135d260258361209c565b91506135dd82613576565b604082019050919050565b60006020820190508181036000830152613601816135c5565b9050919050565b7f4552433732313a207472616e7366657220746f20746865207a65726f2061646460008201527f7265737300000000000000000000000000000000000000000000000000000000602082015250565b600061366460248361209c565b915061366f82613608565b604082019050919050565b6000602082019050818103600083015261369381613657565b9050919050565b60006136a582612143565b91506136b083612143565b92508282039050818111156136c8576136c7613301565b5b92915050565b60006136d982612143565b91506136e483612143565b92508282019050808211156136fc576136fb613301565b5b92915050565b7f4f776e61626c653a2063616c6c6572206973206e6f7420746865206f776e6572600082015250565b600061373860208361209c565b915061374382613702565b602082019050919050565b600060208201905081810360008301526137678161372b565b9050919050565b7f4552433732313a20617070726f766520746f2063616c6c657200000000000000600082015250565b60006137a460198361209c565b91506137af8261376e565b602082019050919050565b600060208201905081810360008301526137d381613797565b9050919050565b7f4552433732313a207472616e7366657220746f206e6f6e20455243373231526560008201527f63656976657220696d706c656d656e7465720000000000000000000000000000602082015250565b600061383660328361209c565b9150613841826137da565b604082019050919050565b6000602082019050818103600083015261386581613829565b9050919050565b7f4e487b7100000000000000000000000000000000000000000000000000000000600052601260045260246000fd5b60006138a682612143565b91506138b183612143565b9250826138c1576138c061386c565b5b828204905092915050565b60006138d782612143565b91506138e283612143565b9250826138f2576138f161386c565b5b828206905092915050565b600081519050919050565b6000613913826138fd565b61391d81856133e7565b935061392d8185602086016120ad565b613936816120d7565b840191505092915050565b600060808201905061395660008301876121d8565b61396360208301866121d8565b61397060408301856125ba565b81810360608301526139828184613908565b905095945050505050565b60008151905061399c81612002565b92915050565b6000602082840312156139b8576139b7611fcc565b5b60006139c68482850161398d565b91505092915050565b7f4552433732313a206d696e7420746f20746865207a65726f2061646472657373600082015250565b6000613a0560208361209c565b9150613a10826139cf565b602082019050919050565b60006020820190508181036000830152613a34816139f8565b9050919050565b7f4552433732313a20746f6b656e20616c7265616479206d696e74656400000000600082015250565b6000613a71601c8361209c565b9150613a7c82613a3b565b602082019050919050565b60006020820190508181036000830152613aa081613a64565b905091905056fea2646970667358221220b9df20dfde63c6764734495053511e5152f001ffa8a29a631d90d2de495e3b2564736f6c63430008110033",
  "linkReferences": {},
  "deployedLinkReferences": {}
}