{
  "_format": "hh-sol-artifact-1",
  "contractName": "Item",
  "sourceName": "contracts/Item.sol",
  "abi": [
    {
      "inputs": [
        {
          "internalType": "address",
          "name": "_linkToken",
          "type": "address"
        }
      ],
      "stateMutability": "nonpayable",
      "type": "constructor"
    },
    {
      "anonymous": false,
      "inputs": [
        {
          "indexed": true,
          "internalType": "address",
          "name": "account",
          "type": "address"
        },
        {
          "indexed": true,
          "internalType": "address",
          "name": "operator",
          "type": "address"
        },
        {
          "indexed": false,
          "internalType": "bool",
          "name": "approved",
          "type": "bool"
        }
      ],
      "name": "ApprovalForAll",
      "type": "event"
    },
    {
      "anonymous": false,
      "inputs": [
        {
          "indexed": true,
          "internalType": "bytes32",
          "name": "id",
          "type": "bytes32"
        }
      ],
      "name": "ChainlinkCancelled",
      "type": "event"
    },
    {
      "anonymous": false,
      "inputs": [
        {
          "indexed": true,
          "internalType": "bytes32",
          "name": "id",
          "type": "bytes32"
        }
      ],
      "name": "ChainlinkFulfilled",
      "type": "event"
    },
    {
      "anonymous": false,
      "inputs": [
        {
          "indexed": true,
          "internalType": "bytes32",
          "name": "id",
          "type": "bytes32"
        }
      ],
      "name": "ChainlinkRequested",
      "type": "event"
    },
    {
      "anonymous": false,
      "inputs": [
        {
          "indexed": true,
          "internalType": "address",
          "name": "from",
          "type": "address"
        },
        {
          "indexed": true,
          "internalType": "address",
          "name": "to",
          "type": "address"
        }
      ],
      "name": "OwnershipTransferRequested",
      "type": "event"
    },
    {
      "anonymous": false,
      "inputs": [
        {
          "indexed": true,
          "internalType": "address",
          "name": "from",
          "type": "address"
        },
        {
          "indexed": true,
          "internalType": "address",
          "name": "to",
          "type": "address"
        }
      ],
      "name": "OwnershipTransferred",
      "type": "event"
    },
    {
      "anonymous": false,
      "inputs": [
        {
          "indexed": true,
          "internalType": "bytes32",
          "name": "requestId",
          "type": "bytes32"
        },
        {
          "indexed": false,
          "internalType": "uint256",
          "name": "number",
          "type": "uint256"
        }
      ],
      "name": "RequestRandomNumber",
      "type": "event"
    },
    {
      "anonymous": false,
      "inputs": [
        {
          "indexed": false,
          "internalType": "address",
          "name": "user",
          "type": "address"
        },
        {
          "indexed": false,
          "internalType": "uint256",
          "name": "tokenId",
          "type": "uint256"
        },
        {
          "indexed": false,
          "internalType": "bool",
          "name": "win",
          "type": "bool"
        }
      ],
      "name": "Result",
      "type": "event"
    },
    {
      "anonymous": false,
      "inputs": [
        {
          "indexed": true,
          "internalType": "address",
          "name": "operator",
          "type": "address"
        },
        {
          "indexed": true,
          "internalType": "address",
          "name": "from",
          "type": "address"
        },
        {
          "indexed": true,
          "internalType": "address",
          "name": "to",
          "type": "address"
        },
        {
          "indexed": false,
          "internalType": "uint256[]",
          "name": "ids",
          "type": "uint256[]"
        },
        {
          "indexed": false,
          "internalType": "uint256[]",
          "name": "values",
          "type": "uint256[]"
        }
      ],
      "name": "TransferBatch",
      "type": "event"
    },
    {
      "anonymous": false,
      "inputs": [
        {
          "indexed": true,
          "internalType": "address",
          "name": "operator",
          "type": "address"
        },
        {
          "indexed": true,
          "internalType": "address",
          "name": "from",
          "type": "address"
        },
        {
          "indexed": true,
          "internalType": "address",
          "name": "to",
          "type": "address"
        },
        {
          "indexed": false,
          "internalType": "uint256",
          "name": "id",
          "type": "uint256"
        },
        {
          "indexed": false,
          "internalType": "uint256",
          "name": "value",
          "type": "uint256"
        }
      ],
      "name": "TransferSingle",
      "type": "event"
    },
    {
      "anonymous": false,
      "inputs": [
        {
          "indexed": false,
          "internalType": "string",
          "name": "value",
          "type": "string"
        },
        {
          "indexed": true,
          "internalType": "uint256",
          "name": "id",
          "type": "uint256"
        }
      ],
      "name": "URI",
      "type": "event"
    },
    {
      "inputs": [],
      "name": "acceptOwnership",
      "outputs": [],
      "stateMutability": "nonpayable",
      "type": "function"
    },
    {
      "inputs": [
        {
          "internalType": "address",
          "name": "account",
          "type": "address"
        },
        {
          "internalType": "uint256",
          "name": "id",
          "type": "uint256"
        }
      ],
      "name": "balanceOf",
      "outputs": [
        {
          "internalType": "uint256",
          "name": "",
          "type": "uint256"
        }
      ],
      "stateMutability": "view",
      "type": "function"
    },
    {
      "inputs": [
        {
          "internalType": "address[]",
          "name": "accounts",
          "type": "address[]"
        },
        {
          "internalType": "uint256[]",
          "name": "ids",
          "type": "uint256[]"
        }
      ],
      "name": "balanceOfBatch",
      "outputs": [
        {
          "internalType": "uint256[]",
          "name": "",
          "type": "uint256[]"
        }
      ],
      "stateMutability": "view",
      "type": "function"
    },
    {
      "inputs": [
        {
          "internalType": "bytes32",
          "name": "_requestId",
          "type": "bytes32"
        },
        {
          "internalType": "uint256",
          "name": "_randomNumber",
          "type": "uint256"
        },
        {
          "internalType": "string",
          "name": "_tokenId",
          "type": "string"
        }
      ],
      "name": "fulfill",
      "outputs": [],
      "stateMutability": "nonpayable",
      "type": "function"
    },
    {
      "inputs": [
        {
          "internalType": "uint256",
          "name": "_tokenId",
          "type": "uint256"
        }
      ],
      "name": "gameJudge",
      "outputs": [
        {
          "internalType": "bool",
          "name": "win",
          "type": "bool"
        }
      ],
      "stateMutability": "payable",
      "type": "function"
    },
    {
      "inputs": [
        {
          "internalType": "uint256",
          "name": "",
          "type": "uint256"
        }
      ],
      "name": "gameResultOfTokenId",
      "outputs": [
        {
          "internalType": "uint256",
          "name": "win",
          "type": "uint256"
        },
        {
          "internalType": "uint256",
          "name": "lose",
          "type": "uint256"
        }
      ],
      "stateMutability": "view",
      "type": "function"
    },
    {
      "inputs": [
        {
          "internalType": "uint256[]",
          "name": "_tokenIds",
          "type": "uint256[]"
        }
      ],
      "name": "gameResultsOfAccount",
      "outputs": [
        {
          "components": [
            {
              "internalType": "uint256",
              "name": "win",
              "type": "uint256"
            },
            {
              "internalType": "uint256",
              "name": "lose",
              "type": "uint256"
            }
          ],
          "internalType": "struct IGameItem.GameResult[]",
          "name": "result",
          "type": "tuple[]"
        }
      ],
      "stateMutability": "view",
      "type": "function"
    },
    {
      "inputs": [
        {
          "internalType": "uint256",
          "name": "_tokenId",
          "type": "uint256"
        }
      ],
      "name": "gameResultsOfTokenId",
      "outputs": [
        {
          "components": [
            {
              "internalType": "uint256",
              "name": "win",
              "type": "uint256"
            },
            {
              "internalType": "uint256",
              "name": "lose",
              "type": "uint256"
            }
          ],
          "internalType": "struct IGameItem.GameResult",
          "name": "result",
          "type": "tuple"
        }
      ],
      "stateMutability": "view",
      "type": "function"
    },
    {
      "inputs": [
        {
          "internalType": "uint256",
          "name": "_tokenId",
          "type": "uint256"
        }
      ],
      "name": "getAttackPoint",
      "outputs": [
        {
          "internalType": "uint256",
          "name": "point",
          "type": "uint256"
        }
      ],
      "stateMutability": "view",
      "type": "function"
    },
    {
      "inputs": [
        {
          "internalType": "uint256",
          "name": "",
          "type": "uint256"
        }
      ],
      "name": "getAttackPointOfTokenId",
      "outputs": [
        {
          "internalType": "uint256",
          "name": "",
          "type": "uint256"
        }
      ],
      "stateMutability": "view",
      "type": "function"
    },
    {
      "inputs": [
        {
          "internalType": "uint256",
          "name": "_tokenId",
          "type": "uint256"
        }
      ],
      "name": "getHp",
      "outputs": [
        {
          "internalType": "uint256",
          "name": "point",
          "type": "uint256"
        }
      ],
      "stateMutability": "view",
      "type": "function"
    },
    {
      "inputs": [
        {
          "internalType": "uint256",
          "name": "",
          "type": "uint256"
        }
      ],
      "name": "getHpOfAttackTokenId",
      "outputs": [
        {
          "internalType": "uint256",
          "name": "",
          "type": "uint256"
        }
      ],
      "stateMutability": "view",
      "type": "function"
    },
    {
      "inputs": [
        {
          "internalType": "address",
          "name": "account",
          "type": "address"
        },
        {
          "internalType": "address",
          "name": "operator",
          "type": "address"
        }
      ],
      "name": "isApprovedForAll",
      "outputs": [
        {
          "internalType": "bool",
          "name": "",
          "type": "bool"
        }
      ],
      "stateMutability": "view",
      "type": "function"
    },
    {
      "inputs": [
        {
          "internalType": "uint256",
          "name": "attackPoint",
          "type": "uint256"
        },
        {
          "internalType": "uint256",
          "name": "hp",
          "type": "uint256"
        }
      ],
      "name": "mint",
      "outputs": [],
      "stateMutability": "payable",
      "type": "function"
    },
    {
      "inputs": [],
      "name": "owner",
      "outputs": [
        {
          "internalType": "address",
          "name": "",
          "type": "address"
        }
      ],
      "stateMutability": "view",
      "type": "function"
    },
    {
      "inputs": [
        {
          "internalType": "uint256",
          "name": "_tokenId",
          "type": "uint256"
        }
      ],
      "name": "ownerOf",
      "outputs": [
        {
          "internalType": "address",
          "name": "owner",
          "type": "address"
        }
      ],
      "stateMutability": "view",
      "type": "function"
    },
    {
      "inputs": [
        {
          "internalType": "uint256",
          "name": "",
          "type": "uint256"
        }
      ],
      "name": "ownerOfTokenId",
      "outputs": [
        {
          "internalType": "address",
          "name": "",
          "type": "address"
        }
      ],
      "stateMutability": "view",
      "type": "function"
    },
    {
      "inputs": [
        {
          "internalType": "uint256",
          "name": "_tokenId",
          "type": "uint256"
        }
      ],
      "name": "requestRandomNumber",
      "outputs": [
        {
          "internalType": "bytes32",
          "name": "requestId",
          "type": "bytes32"
        }
      ],
      "stateMutability": "nonpayable",
      "type": "function"
    },
    {
      "inputs": [
        {
          "internalType": "address",
          "name": "from",
          "type": "address"
        },
        {
          "internalType": "address",
          "name": "to",
          "type": "address"
        },
        {
          "internalType": "uint256[]",
          "name": "ids",
          "type": "uint256[]"
        },
        {
          "internalType": "uint256[]",
          "name": "amounts",
          "type": "uint256[]"
        },
        {
          "internalType": "bytes",
          "name": "data",
          "type": "bytes"
        }
      ],
      "name": "safeBatchTransferFrom",
      "outputs": [],
      "stateMutability": "nonpayable",
      "type": "function"
    },
    {
      "inputs": [
        {
          "internalType": "address",
          "name": "from",
          "type": "address"
        },
        {
          "internalType": "address",
          "name": "to",
          "type": "address"
        },
        {
          "internalType": "uint256",
          "name": "id",
          "type": "uint256"
        },
        {
          "internalType": "uint256",
          "name": "amount",
          "type": "uint256"
        },
        {
          "internalType": "bytes",
          "name": "data",
          "type": "bytes"
        }
      ],
      "name": "safeTransferFrom",
      "outputs": [],
      "stateMutability": "nonpayable",
      "type": "function"
    },
    {
      "inputs": [
        {
          "internalType": "address",
          "name": "operator",
          "type": "address"
        },
        {
          "internalType": "bool",
          "name": "approved",
          "type": "bool"
        }
      ],
      "name": "setApprovalForAll",
      "outputs": [],
      "stateMutability": "nonpayable",
      "type": "function"
    },
    {
      "inputs": [
        {
          "internalType": "string",
          "name": "_id",
          "type": "string"
        }
      ],
      "name": "setJobId",
      "outputs": [],
      "stateMutability": "nonpayable",
      "type": "function"
    },
    {
      "inputs": [
        {
          "internalType": "address",
          "name": "_oracle",
          "type": "address"
        }
      ],
      "name": "setOracle",
      "outputs": [],
      "stateMutability": "nonpayable",
      "type": "function"
    },
    {
      "inputs": [
        {
          "internalType": "bytes4",
          "name": "interfaceId",
          "type": "bytes4"
        }
      ],
      "name": "supportsInterface",
      "outputs": [
        {
          "internalType": "bool",
          "name": "",
          "type": "bool"
        }
      ],
      "stateMutability": "view",
      "type": "function"
    },
    {
      "inputs": [
        {
          "internalType": "address",
          "name": "to",
          "type": "address"
        }
      ],
      "name": "transferOwnership",
      "outputs": [],
      "stateMutability": "nonpayable",
      "type": "function"
    },
    {
      "inputs": [
        {
          "internalType": "uint256",
          "name": "",
          "type": "uint256"
        }
      ],
      "name": "uri",
      "outputs": [
        {
          "internalType": "string",
          "name": "",
          "type": "string"
        }
      ],
      "stateMutability": "view",
      "type": "function"
    }
  ],
  "bytecode": "0x608060405260016007553480156200001657600080fd5b50604051620056703803806200567083398181016040528101906200003c9190620003a8565b338060006040518060800160405280605a815260200162005616605a91396200006b81620001b460201b60201c565b50600073ffffffffffffffffffffffffffffffffffffffff168273ffffffffffffffffffffffffffffffffffffffff1603620000de576040517f08c379a0000000000000000000000000000000000000000000000000000000008152600401620000d5906200043b565b60405180910390fd5b81600960006101000a81548173ffffffffffffffffffffffffffffffffffffffff021916908373ffffffffffffffffffffffffffffffffffffffff160217905550600073ffffffffffffffffffffffffffffffffffffffff168173ffffffffffffffffffffffffffffffffffffffff161462000166576200016581620001c960201b60201c565b5b5050506001600b819055506200018281620002fa60201b60201c565b600a670de0b6b3a764000060016200019b919062000496565b620001a7919062000510565b600d819055505062000911565b8060029081620001c59190620007b8565b5050565b3373ffffffffffffffffffffffffffffffffffffffff168173ffffffffffffffffffffffffffffffffffffffff16036200023a576040517f08c379a00000000000000000000000000000000000000000000000000000000081526004016200023190620008ef565b60405180910390fd5b80600a60006101000a81548173ffffffffffffffffffffffffffffffffffffffff021916908373ffffffffffffffffffffffffffffffffffffffff1602179055508073ffffffffffffffffffffffffffffffffffffffff16600960009054906101000a900473ffffffffffffffffffffffffffffffffffffffff1673ffffffffffffffffffffffffffffffffffffffff167fed8889f560326eb138920d842192f0eb3dd22b4f139c87a2c57538e05bae127860405160405180910390a350565b80600560006101000a81548173ffffffffffffffffffffffffffffffffffffffff021916908373ffffffffffffffffffffffffffffffffffffffff16021790555050565b600080fd5b600073ffffffffffffffffffffffffffffffffffffffff82169050919050565b6000620003708262000343565b9050919050565b620003828162000363565b81146200038e57600080fd5b50565b600081519050620003a28162000377565b92915050565b600060208284031215620003c157620003c06200033e565b5b6000620003d18482850162000391565b91505092915050565b600082825260208201905092915050565b7f43616e6e6f7420736574206f776e657220746f207a65726f0000000000000000600082015250565b600062000423601883620003da565b91506200043082620003eb565b602082019050919050565b60006020820190508181036000830152620004568162000414565b9050919050565b6000819050919050565b7f4e487b7100000000000000000000000000000000000000000000000000000000600052601160045260246000fd5b6000620004a3826200045d565b9150620004b0836200045d565b9250828202620004c0816200045d565b91508282048414831517620004da57620004d962000467565b5b5092915050565b7f4e487b7100000000000000000000000000000000000000000000000000000000600052601260045260246000fd5b60006200051d826200045d565b91506200052a836200045d565b9250826200053d576200053c620004e1565b5b828204905092915050565b600081519050919050565b7f4e487b7100000000000000000000000000000000000000000000000000000000600052604160045260246000fd5b7f4e487b7100000000000000000000000000000000000000000000000000000000600052602260045260246000fd5b60006002820490506001821680620005ca57607f821691505b602082108103620005e057620005df62000582565b5b50919050565b60008190508160005260206000209050919050565b60006020601f8301049050919050565b600082821b905092915050565b6000600883026200064a7fffffffffffffffffffffffffffffffffffffffffffffffffffffffffffffffff826200060b565b6200065686836200060b565b95508019841693508086168417925050509392505050565b6000819050919050565b600062000699620006936200068d846200045d565b6200066e565b6200045d565b9050919050565b6000819050919050565b620006b58362000678565b620006cd620006c482620006a0565b84845462000618565b825550505050565b600090565b620006e4620006d5565b620006f1818484620006aa565b505050565b5b8181101562000719576200070d600082620006da565b600181019050620006f7565b5050565b601f82111562000768576200073281620005e6565b6200073d84620005fb565b810160208510156200074d578190505b620007656200075c85620005fb565b830182620006f6565b50505b505050565b600082821c905092915050565b60006200078d600019846008026200076d565b1980831691505092915050565b6000620007a883836200077a565b9150826002028217905092915050565b620007c38262000548565b67ffffffffffffffff811115620007df57620007de62000553565b5b620007eb8254620005b1565b620007f88282856200071d565b600060209050601f8311600181146200083057600084156200081b578287015190505b6200082785826200079a565b86555062000897565b601f1984166200084086620005e6565b60005b828110156200086a5784890151825560018201915060208501945060208101905062000843565b868310156200088a578489015162000886601f8916826200077a565b8355505b6001600288020188555050505b505050505050565b7f43616e6e6f74207472616e7366657220746f2073656c66000000000000000000600082015250565b6000620008d7601783620003da565b9150620008e4826200089f565b602082019050919050565b600060208201905081810360008301526200090a81620008c8565b9050919050565b614cf580620009216000396000f3fe60806040526004361061017f5760003560e01c806379ba5097116100d1578063b1eb96c91161008a578063e985e9c511610064578063e985e9c514610606578063f242432a14610643578063f2c539831461066c578063f2fde38b1461069c5761017f565b8063b1eb96c91461054f578063b5a9cc661461058c578063de204bb0146105c95761017f565b806379ba5097146104555780637adbf9731461046c5780638458bd70146104955780638da5cb5b146104d257806397fb4d69146104fd578063a22cb465146105265761017f565b806312e8ac061161013e5780632eb2c2d6116101185780632eb2c2d6146103745780634e1273f41461039d57806352bc341e146103da5780636352211e146104185761017f565b806312e8ac06146102de5780631b2ef1ca1461031b5780632e7d67bf146103375761017f565b80629c932c14610184578062fdd58e146101c157806301ffc9a7146101fe5780630742ba701461023b5780630e89341c14610278578063129fc1c0146102b5575b600080fd5b34801561019057600080fd5b506101ab60048036038101906101a69190612e6d565b6106c5565b6040516101b89190612ea9565b60405180910390f35b3480156101cd57600080fd5b506101e860048036038101906101e39190612f22565b6106dd565b6040516101f59190612ea9565b60405180910390f35b34801561020a57600080fd5b5061022560048036038101906102209190612fba565b6107a5565b6040516102329190613002565b60405180910390f35b34801561024757600080fd5b50610262600480360381019061025d9190612e6d565b610887565b60405161026f919061305b565b60405180910390f35b34801561028457600080fd5b5061029f600480360381019061029a9190612e6d565b6108c8565b6040516102ac9190613106565b60405180910390f35b3480156102c157600080fd5b506102dc60048036038101906102d7919061325d565b61095c565b005b3480156102ea57600080fd5b5061030560048036038101906103009190612e6d565b6109c2565b60405161031291906132b5565b60405180910390f35b610335600480360381019061033091906132d0565b6109f5565b005b34801561034357600080fd5b5061035e60048036038101906103599190612e6d565b610abf565b60405161036b9190612ea9565b60405180910390f35b34801561038057600080fd5b5061039b60048036038101906103969190613479565b610adc565b005b3480156103a957600080fd5b506103c460048036038101906103bf919061360b565b610b7d565b6040516103d19190613732565b60405180910390f35b3480156103e657600080fd5b5061040160048036038101906103fc9190612e6d565b610c96565b60405161040f929190613754565b60405180910390f35b34801561042457600080fd5b5061043f600480360381019061043a9190612e6d565b610cba565b60405161044c91906132b5565b60405180910390f35b34801561046157600080fd5b5061046a610cf7565b005b34801561047857600080fd5b50610493600480360381019061048e919061377d565b610e8e565b005b3480156104a157600080fd5b506104bc60048036038101906104b79190612e6d565b610ea2565b6040516104c99190612ea9565b60405180910390f35b3480156104de57600080fd5b506104e7610ebf565b6040516104f491906132b5565b60405180910390f35b34801561050957600080fd5b50610524600480360381019061051f919061383b565b610ee9565b005b34801561053257600080fd5b5061054d600480360381019061054891906138db565b61102d565b005b34801561055b57600080fd5b5061057660048036038101906105719190612e6d565b611043565b604051610583919061392a565b60405180910390f35b34801561059857600080fd5b506105b360048036038101906105ae9190613945565b611124565b6040516105c09190613a6c565b60405180910390f35b3480156105d557600080fd5b506105f060048036038101906105eb9190612e6d565b6111b5565b6040516105fd9190612ea9565b60405180910390f35b34801561061257600080fd5b5061062d60048036038101906106289190613a8e565b6111cd565b60405161063a9190613002565b60405180910390f35b34801561064f57600080fd5b5061066a60048036038101906106659190613ace565b611261565b005b61068660048036038101906106819190612e6d565b611302565b6040516106939190613002565b60405180910390f35b3480156106a857600080fd5b506106c360048036038101906106be919061377d565b61142e565b005b60106020528060005260406000206000915090505481565b60008073ffffffffffffffffffffffffffffffffffffffff168373ffffffffffffffffffffffffffffffffffffffff160361074d576040517f08c379a000000000000000000000000000000000000000000000000000000000815260040161074490613bd7565b60405180910390fd5b60008083815260200190815260200160002060008473ffffffffffffffffffffffffffffffffffffffff1673ffffffffffffffffffffffffffffffffffffffff16815260200190815260200160002054905092915050565b60007fd9b67a26000000000000000000000000000000000000000000000000000000007bffffffffffffffffffffffffffffffffffffffffffffffffffffffff1916827bffffffffffffffffffffffffffffffffffffffffffffffffffffffff1916148061087057507f0e89341c000000000000000000000000000000000000000000000000000000007bffffffffffffffffffffffffffffffffffffffffffffffffffffffff1916827bffffffffffffffffffffffffffffffffffffffffffffffffffffffff1916145b80610880575061087f82611442565b5b9050919050565b61088f612d82565b600e6000838152602001908152602001600020604051806040016040529081600082015481526020016001820154815250509050919050565b6060600280546108d790613c26565b80601f016020809104026020016040519081016040528092919081815260200182805461090390613c26565b80156109505780601f1061092557610100808354040283529160200191610950565b820191906000526020600020905b81548152906001019060200180831161093357829003601f168201915b50505050509050919050565b6109646114ac565b600081905060008151036109ad576040517f08c379a00000000000000000000000000000000000000000000000000000000081526004016109a490613ca3565b60405180910390fd5b60006020830151905080600c81905550505050565b60116020528060005260406000206000915054906101000a900473ffffffffffffffffffffffffffffffffffffffff1681565b6109fd6114ac565b610a1b33600b5460016040518060200160405280600081525061153e565b81600f6000600b548152602001908152602001600020819055508060106000600b548152602001908152602001600020819055503360116000600b54815260200190815260200160002060006101000a81548173ffffffffffffffffffffffffffffffffffffffff021916908373ffffffffffffffffffffffffffffffffffffffff160217905550600b6000815480929190610ab690613cf2565b91905055505050565b6000600f6000838152602001908152602001600020549050919050565b610ae46116ee565b73ffffffffffffffffffffffffffffffffffffffff168573ffffffffffffffffffffffffffffffffffffffff161480610b2a5750610b2985610b246116ee565b6111cd565b5b610b69576040517f08c379a0000000000000000000000000000000000000000000000000000000008152600401610b6090613dac565b60405180910390fd5b610b7685858585856116f6565b5050505050565b60608151835114610bc3576040517f08c379a0000000000000000000000000000000000000000000000000000000008152600401610bba90613e3e565b60405180910390fd5b6000835167ffffffffffffffff811115610be057610bdf613132565b5b604051908082528060200260200182016040528015610c0e5781602001602082028036833780820191505090505b50905060005b8451811015610c8b57610c5b858281518110610c3357610c32613e5e565b5b6020026020010151858381518110610c4e57610c4d613e5e565b5b60200260200101516106dd565b828281518110610c6e57610c6d613e5e565b5b60200260200101818152505080610c8490613cf2565b9050610c14565b508091505092915050565b600e6020528060005260406000206000915090508060000154908060010154905082565b60006011600083815260200190815260200160002060009054906101000a900473ffffffffffffffffffffffffffffffffffffffff169050919050565b600a60009054906101000a900473ffffffffffffffffffffffffffffffffffffffff1673ffffffffffffffffffffffffffffffffffffffff163373ffffffffffffffffffffffffffffffffffffffff1614610d87576040517f08c379a0000000000000000000000000000000000000000000000000000000008152600401610d7e90613ed9565b60405180910390fd5b6000600960009054906101000a900473ffffffffffffffffffffffffffffffffffffffff16905033600960006101000a81548173ffffffffffffffffffffffffffffffffffffffff021916908373ffffffffffffffffffffffffffffffffffffffff1602179055506000600a60006101000a81548173ffffffffffffffffffffffffffffffffffffffff021916908373ffffffffffffffffffffffffffffffffffffffff1602179055503373ffffffffffffffffffffffffffffffffffffffff168173ffffffffffffffffffffffffffffffffffffffff167f8be0079c531659141344cd1fd0a4f28419497f9722a3daafe3b4186f6b6457e060405160405180910390a350565b610e966114ac565b610e9f81611a17565b50565b600060106000838152602001908152602001600020549050919050565b6000600960009054906101000a900473ffffffffffffffffffffffffffffffffffffffff16905090565b836008600082815260200190815260200160002060009054906101000a900473ffffffffffffffffffffffffffffffffffffffff1673ffffffffffffffffffffffffffffffffffffffff163373ffffffffffffffffffffffffffffffffffffffff1614610f8b576040517f08c379a0000000000000000000000000000000000000000000000000000000008152600401610f8290613f6b565b60405180910390fd5b6008600082815260200190815260200160002060006101000a81549073ffffffffffffffffffffffffffffffffffffffff0219169055807f7cc135e0cebb02c3480ae5d74d377283180a2601f8f644edf7987b009316c63a60405160405180910390a2847fa30dbb727a2a799952fce85eef1e411c12905bd49491abf6d3c2192a09979bc58560405161101e9190612ea9565b60405180910390a25050505050565b61103f6110386116ee565b8383611a5b565b5050565b60008061105a600c54306397fb4d6960e01b611bc7565b90506110be6040518060400160405280600381526020017f6765740000000000000000000000000000000000000000000000000000000000815250604051806080016040528060478152602001614c796047913983611bf89092919063ffffffff16565b6111106040518060400160405280600781526020017f746f6b656e49640000000000000000000000000000000000000000000000000081525061110085611c2b565b83611bf89092919063ffffffff16565b61111c81600d54611d8b565b915050919050565b606060005b82518110156111af57600e600084838151811061114957611148613e5e565b5b602002602001015181526020019081526020016000206040518060400160405290816000820154815260200160018201548152505082828151811061119157611190613e5e565b5b602002602001018190525080806111a790613cf2565b915050611129565b50919050565b600f6020528060005260406000206000915090505481565b6000600160008473ffffffffffffffffffffffffffffffffffffffff1673ffffffffffffffffffffffffffffffffffffffff16815260200190815260200160002060008373ffffffffffffffffffffffffffffffffffffffff1673ffffffffffffffffffffffffffffffffffffffff16815260200190815260200160002060009054906101000a900460ff16905092915050565b6112696116ee565b73ffffffffffffffffffffffffffffffffffffffff168573ffffffffffffffffffffffffffffffffffffffff1614806112af57506112ae856112a96116ee565b6111cd565b5b6112ee576040517f08c379a00000000000000000000000000000000000000000000000000000000081526004016112e590613dac565b60405180910390fd5b6112fb8585858585611dc2565b5050505050565b6000806103e890506000600f6000858152602001908152602001600020549050600082826113309190613f95565b905060008113935083156113a557600e6000868152602001908152602001600020600001600081548092919061136590613cf2565b91905055508060106000878152602001908152602001600020546113899190613fd8565b60106000878152602001908152602001600020819055506113eb565b600e600086815260200190815260200160002060010160008154809291906113cc90613cf2565b9190505550600060106000878152602001908152602001600020819055505b7fa0867ae7014ecaed5131be35eee4f48954b6ea0ef56a93ea3f1195841bc0fb7833868660405161141e9392919061400c565b60405180910390a1505050919050565b6114366114ac565b61143f8161205d565b50565b60007f01ffc9a7000000000000000000000000000000000000000000000000000000007bffffffffffffffffffffffffffffffffffffffffffffffffffffffff1916827bffffffffffffffffffffffffffffffffffffffffffffffffffffffff1916149050919050565b600960009054906101000a900473ffffffffffffffffffffffffffffffffffffffff1673ffffffffffffffffffffffffffffffffffffffff163373ffffffffffffffffffffffffffffffffffffffff161461153c576040517f08c379a00000000000000000000000000000000000000000000000000000000081526004016115339061408f565b60405180910390fd5b565b600073ffffffffffffffffffffffffffffffffffffffff168473ffffffffffffffffffffffffffffffffffffffff16036115ad576040517f08c379a00000000000000000000000000000000000000000000000000000000081526004016115a490614121565b60405180910390fd5b60006115b76116ee565b905060006115c48561218b565b905060006115d18561218b565b90506115e283600089858589612205565b8460008088815260200190815260200160002060008973ffffffffffffffffffffffffffffffffffffffff1673ffffffffffffffffffffffffffffffffffffffff16815260200190815260200160002060008282546116419190614141565b925050819055508673ffffffffffffffffffffffffffffffffffffffff16600073ffffffffffffffffffffffffffffffffffffffff168473ffffffffffffffffffffffffffffffffffffffff167fc3d58168c5ae7397731d063d5bbf3d657854427343f4c083240f7aacaa2d0f6289896040516116bf929190613754565b60405180910390a46116d68360008985858961220d565b6116e583600089898989612215565b50505050505050565b600033905090565b815183511461173a576040517f08c379a0000000000000000000000000000000000000000000000000000000008152600401611731906141e7565b60405180910390fd5b600073ffffffffffffffffffffffffffffffffffffffff168473ffffffffffffffffffffffffffffffffffffffff16036117a9576040517f08c379a00000000000000000000000000000000000000000000000000000000081526004016117a090614279565b60405180910390fd5b60006117b36116ee565b90506117c3818787878787612205565b60005b84518110156119745760008582815181106117e4576117e3613e5e565b5b60200260200101519050600085838151811061180357611802613e5e565b5b60200260200101519050600080600084815260200190815260200160002060008b73ffffffffffffffffffffffffffffffffffffffff1673ffffffffffffffffffffffffffffffffffffffff168152602001908152602001600020549050818110156118a4576040517f08c379a000000000000000000000000000000000000000000000000000000000815260040161189b9061430b565b60405180910390fd5b81810360008085815260200190815260200160002060008c73ffffffffffffffffffffffffffffffffffffffff1673ffffffffffffffffffffffffffffffffffffffff168152602001908152602001600020819055508160008085815260200190815260200160002060008b73ffffffffffffffffffffffffffffffffffffffff1673ffffffffffffffffffffffffffffffffffffffff16815260200190815260200160002060008282546119599190614141565b925050819055505050508061196d90613cf2565b90506117c6565b508473ffffffffffffffffffffffffffffffffffffffff168673ffffffffffffffffffffffffffffffffffffffff168273ffffffffffffffffffffffffffffffffffffffff167f4a39dc06d4c0dbc64b70af90fd698a233a518aa5d07e595d983b8c0526c8f7fb87876040516119eb92919061432b565b60405180910390a4611a0181878787878761220d565b611a0f8187878787876123ec565b505050505050565b80600660006101000a81548173ffffffffffffffffffffffffffffffffffffffff021916908373ffffffffffffffffffffffffffffffffffffffff16021790555050565b8173ffffffffffffffffffffffffffffffffffffffff168373ffffffffffffffffffffffffffffffffffffffff1603611ac9576040517f08c379a0000000000000000000000000000000000000000000000000000000008152600401611ac0906143d4565b60405180910390fd5b80600160008573ffffffffffffffffffffffffffffffffffffffff1673ffffffffffffffffffffffffffffffffffffffff16815260200190815260200160002060008473ffffffffffffffffffffffffffffffffffffffff1673ffffffffffffffffffffffffffffffffffffffff16815260200190815260200160002060006101000a81548160ff0219169083151502179055508173ffffffffffffffffffffffffffffffffffffffff168373ffffffffffffffffffffffffffffffffffffffff167f17307eab39ab6107e8899845ad3d59bd9653f200f220920489ca2b5937696c3183604051611bba9190613002565b60405180910390a3505050565b611bcf612d9c565b611bd7612d9c565b611bee858585846125c3909392919063ffffffff16565b9150509392505050565b611c0f82846080015161267390919063ffffffff16565b611c2681846080015161267390919063ffffffff16565b505050565b606060008203611c72576040518060400160405280600181526020017f30000000000000000000000000000000000000000000000000000000000000008152509050611d86565b600082905060005b60008214611ca4578080611c8d90613cf2565b915050600a82611c9d9190614423565b9150611c7a565b60008167ffffffffffffffff811115611cc057611cbf613132565b5b6040519080825280601f01601f191660200182016040528015611cf25781602001600182028036833780820191505090505b5090505b60008514611d7f57600182611d0b9190613fd8565b9150600a85611d1a9190614454565b6030611d269190614141565b60f81b818381518110611d3c57611d3b613e5e565b5b60200101907effffffffffffffffffffffffffffffffffffffffffffffffffffffffffffff1916908160001a905350600a85611d789190614423565b9450611cf6565b8093505050505b919050565b6000611dba600660009054906101000a900473ffffffffffffffffffffffffffffffffffffffff168484612698565b905092915050565b600073ffffffffffffffffffffffffffffffffffffffff168473ffffffffffffffffffffffffffffffffffffffff1603611e31576040517f08c379a0000000000000000000000000000000000000000000000000000000008152600401611e2890614279565b60405180910390fd5b6000611e3b6116ee565b90506000611e488561218b565b90506000611e558561218b565b9050611e65838989858589612205565b600080600088815260200190815260200160002060008a73ffffffffffffffffffffffffffffffffffffffff1673ffffffffffffffffffffffffffffffffffffffff16815260200190815260200160002054905085811015611efc576040517f08c379a0000000000000000000000000000000000000000000000000000000008152600401611ef39061430b565b60405180910390fd5b85810360008089815260200190815260200160002060008b73ffffffffffffffffffffffffffffffffffffffff1673ffffffffffffffffffffffffffffffffffffffff168152602001908152602001600020819055508560008089815260200190815260200160002060008a73ffffffffffffffffffffffffffffffffffffffff1673ffffffffffffffffffffffffffffffffffffffff1681526020019081526020016000206000828254611fb19190614141565b925050819055508773ffffffffffffffffffffffffffffffffffffffff168973ffffffffffffffffffffffffffffffffffffffff168573ffffffffffffffffffffffffffffffffffffffff167fc3d58168c5ae7397731d063d5bbf3d657854427343f4c083240f7aacaa2d0f628a8a60405161202e929190613754565b60405180910390a4612044848a8a86868a61220d565b612052848a8a8a8a8a612215565b505050505050505050565b3373ffffffffffffffffffffffffffffffffffffffff168173ffffffffffffffffffffffffffffffffffffffff16036120cb576040517f08c379a00000000000000000000000000000000000000000000000000000000081526004016120c2906144d1565b60405180910390fd5b80600a60006101000a81548173ffffffffffffffffffffffffffffffffffffffff021916908373ffffffffffffffffffffffffffffffffffffffff1602179055508073ffffffffffffffffffffffffffffffffffffffff16600960009054906101000a900473ffffffffffffffffffffffffffffffffffffffff1673ffffffffffffffffffffffffffffffffffffffff167fed8889f560326eb138920d842192f0eb3dd22b4f139c87a2c57538e05bae127860405160405180910390a350565b60606000600167ffffffffffffffff8111156121aa576121a9613132565b5b6040519080825280602002602001820160405280156121d85781602001602082028036833780820191505090505b50905082816000815181106121f0576121ef613e5e565b5b60200260200101818152505080915050919050565b505050505050565b505050505050565b6122348473ffffffffffffffffffffffffffffffffffffffff16612764565b156123e4578373ffffffffffffffffffffffffffffffffffffffff1663f23a6e6187878686866040518663ffffffff1660e01b815260040161227a959493929190614546565b6020604051808303816000875af19250505080156122b657506040513d601f19601f820116820180604052508101906122b391906145b5565b60015b61235b576122c26145ef565b806308c379a00361231e57506122d6614611565b806122e15750612320565b806040517f08c379a00000000000000000000000000000000000000000000000000000000081526004016123159190613106565b60405180910390fd5b505b6040517f08c379a000000000000000000000000000000000000000000000000000000000815260040161235290614713565b60405180910390fd5b63f23a6e6160e01b7bffffffffffffffffffffffffffffffffffffffffffffffffffffffff1916817bffffffffffffffffffffffffffffffffffffffffffffffffffffffff1916146123e2576040517f08c379a00000000000000000000000000000000000000000000000000000000081526004016123d9906147a5565b60405180910390fd5b505b505050505050565b61240b8473ffffffffffffffffffffffffffffffffffffffff16612764565b156125bb578373ffffffffffffffffffffffffffffffffffffffff1663bc197c8187878686866040518663ffffffff1660e01b81526004016124519594939291906147c5565b6020604051808303816000875af192505050801561248d57506040513d601f19601f8201168201806040525081019061248a91906145b5565b60015b612532576124996145ef565b806308c379a0036124f557506124ad614611565b806124b857506124f7565b806040517f08c379a00000000000000000000000000000000000000000000000000000000081526004016124ec9190613106565b60405180910390fd5b505b6040517f08c379a000000000000000000000000000000000000000000000000000000000815260040161252990614713565b60405180910390fd5b63bc197c8160e01b7bffffffffffffffffffffffffffffffffffffffffffffffffffffffff1916817bffffffffffffffffffffffffffffffffffffffffffffffffffffffff1916146125b9576040517f08c379a00000000000000000000000000000000000000000000000000000000081526004016125b0906147a5565b60405180910390fd5b505b505050505050565b6125cb612d9c565b6125db8560800151610100612787565b508385600001818152505082856020019073ffffffffffffffffffffffffffffffffffffffff16908173ffffffffffffffffffffffffffffffffffffffff16815250508185604001907bffffffffffffffffffffffffffffffffffffffffffffffffffffffff191690817bffffffffffffffffffffffffffffffffffffffffffffffffffffffff191681525050849050949350505050565b61268082600383516127f1565b612693818361297690919063ffffffff16565b505050565b60008060075490506001816126ad9190614141565b6007819055506000634042994660e01b60008087600001513089604001518760018c60800151600001516040516024016126ee98979695949392919061483c565b604051602081830303815290604052907bffffffffffffffffffffffffffffffffffffffffffffffffffffffff19166020820180517bffffffffffffffffffffffffffffffffffffffffffffffffffffffff8381831617835250505050905061275986838684612998565b925050509392505050565b6000808273ffffffffffffffffffffffffffffffffffffffff163b119050919050565b61278f612e09565b600060208361279e9190614454565b146127ca576020826127b09190614454565b60206127bc9190613fd8565b826127c79190614141565b91505b81836020018181525050604051808452600081528281016020016040525082905092915050565b60178167ffffffffffffffff1611612828576128228160058460ff16901b60ff161784612b2d90919063ffffffff16565b50612971565b60ff8167ffffffffffffffff161161287e57612857601860058460ff16901b1784612b2d90919063ffffffff16565b506128788167ffffffffffffffff16600185612b4d9092919063ffffffff16565b50612970565b61ffff8167ffffffffffffffff16116128d5576128ae601960058460ff16901b1784612b2d90919063ffffffff16565b506128cf8167ffffffffffffffff16600285612b4d9092919063ffffffff16565b5061296f565b63ffffffff8167ffffffffffffffff161161292e57612907601a60058460ff16901b1784612b2d90919063ffffffff16565b506129288167ffffffffffffffff16600485612b4d9092919063ffffffff16565b5061296e565b61294b601b60058460ff16901b1784612b2d90919063ffffffff16565b5061296c8167ffffffffffffffff16600885612b4d9092919063ffffffff16565b505b5b5b5b505050565b61297e612e09565b61299083846000015151848551612b6f565b905092915050565b600030846040516020016129ad92919061497a565b604051602081830303815290604052805190602001209050846008600083815260200190815260200160002060006101000a81548173ffffffffffffffffffffffffffffffffffffffff021916908373ffffffffffffffffffffffffffffffffffffffff160217905550807fb5e6e01e79f91267dc17b4e6314d5d4d03593d2ceee0fbb452b750bd70ea5af960405160405180910390a2600560009054906101000a900473ffffffffffffffffffffffffffffffffffffffff1673ffffffffffffffffffffffffffffffffffffffff16634000aea08685856040518463ffffffff1660e01b8152600401612aa3939291906149a6565b6020604051808303816000875af1158015612ac2573d6000803e3d6000fd5b505050506040513d601f19601f82011682018060405250810190612ae691906149f9565b612b25576040517f08c379a0000000000000000000000000000000000000000000000000000000008152600401612b1c90614a98565b60405180910390fd5b949350505050565b612b35612e09565b612b458384600001515184612c5e565b905092915050565b612b55612e09565b612b66848560000151518585612cb4565b90509392505050565b612b77612e09565b8251821115612b8557600080fd5b84602001518285612b969190614141565b1115612bcb57612bca856002612bbb88602001518887612bb69190614141565b612d42565b612bc59190614ab8565b612d5e565b5b600080865180518760208301019350808887011115612bea5787860182525b60208701925050505b60208410612c315780518252602082612c0c9190614141565b9150602081612c1b9190614141565b9050602084612c2a9190613fd8565b9350612bf3565b60006001856020036101000a03905080198251168184511681811785525050508692505050949350505050565b612c66612e09565b83602001518310612c8c57612c8b8460028660200151612c869190614ab8565b612d5e565b5b83518051602085830101848153818603612ca7576001820183525b5050508390509392505050565b612cbc612e09565b84602001518483612ccd9190614141565b1115612cf557612cf48560028685612ce59190614141565b612cef9190614ab8565b612d5e565b5b6000600183610100612d079190614c2d565b612d119190613fd8565b90508551838682010185831982511617815281518588011115612d345784870182525b505085915050949350505050565b600081831115612d5457829050612d58565b8190505b92915050565b600082600001519050612d718383612787565b50612d7c8382612976565b50505050565b604051806040016040528060008152602001600081525090565b6040518060a0016040528060008019168152602001600073ffffffffffffffffffffffffffffffffffffffff16815260200160007bffffffffffffffffffffffffffffffffffffffffffffffffffffffff1916815260200160008152602001612e03612e09565b81525090565b604051806040016040528060608152602001600081525090565b6000604051905090565b600080fd5b600080fd5b6000819050919050565b612e4a81612e37565b8114612e5557600080fd5b50565b600081359050612e6781612e41565b92915050565b600060208284031215612e8357612e82612e2d565b5b6000612e9184828501612e58565b91505092915050565b612ea381612e37565b82525050565b6000602082019050612ebe6000830184612e9a565b92915050565b600073ffffffffffffffffffffffffffffffffffffffff82169050919050565b6000612eef82612ec4565b9050919050565b612eff81612ee4565b8114612f0a57600080fd5b50565b600081359050612f1c81612ef6565b92915050565b60008060408385031215612f3957612f38612e2d565b5b6000612f4785828601612f0d565b9250506020612f5885828601612e58565b9150509250929050565b60007fffffffff0000000000000000000000000000000000000000000000000000000082169050919050565b612f9781612f62565b8114612fa257600080fd5b50565b600081359050612fb481612f8e565b92915050565b600060208284031215612fd057612fcf612e2d565b5b6000612fde84828501612fa5565b91505092915050565b60008115159050919050565b612ffc81612fe7565b82525050565b60006020820190506130176000830184612ff3565b92915050565b61302681612e37565b82525050565b604082016000820151613042600085018261301d565b506020820151613055602085018261301d565b50505050565b6000604082019050613070600083018461302c565b92915050565b600081519050919050565b600082825260208201905092915050565b60005b838110156130b0578082015181840152602081019050613095565b60008484015250505050565b6000601f19601f8301169050919050565b60006130d882613076565b6130e28185613081565b93506130f2818560208601613092565b6130fb816130bc565b840191505092915050565b6000602082019050818103600083015261312081846130cd565b905092915050565b600080fd5b600080fd5b7f4e487b7100000000000000000000000000000000000000000000000000000000600052604160045260246000fd5b61316a826130bc565b810181811067ffffffffffffffff8211171561318957613188613132565b5b80604052505050565b600061319c612e23565b90506131a88282613161565b919050565b600067ffffffffffffffff8211156131c8576131c7613132565b5b6131d1826130bc565b9050602081019050919050565b82818337600083830152505050565b60006132006131fb846131ad565b613192565b90508281526020810184848401111561321c5761321b61312d565b5b6132278482856131de565b509392505050565b600082601f83011261324457613243613128565b5b81356132548482602086016131ed565b91505092915050565b60006020828403121561327357613272612e2d565b5b600082013567ffffffffffffffff81111561329157613290612e32565b5b61329d8482850161322f565b91505092915050565b6132af81612ee4565b82525050565b60006020820190506132ca60008301846132a6565b92915050565b600080604083850312156132e7576132e6612e2d565b5b60006132f585828601612e58565b925050602061330685828601612e58565b9150509250929050565b600067ffffffffffffffff82111561332b5761332a613132565b5b602082029050602081019050919050565b600080fd5b600061335461334f84613310565b613192565b905080838252602082019050602084028301858111156133775761337661333c565b5b835b818110156133a0578061338c8882612e58565b845260208401935050602081019050613379565b5050509392505050565b600082601f8301126133bf576133be613128565b5b81356133cf848260208601613341565b91505092915050565b600067ffffffffffffffff8211156133f3576133f2613132565b5b6133fc826130bc565b9050602081019050919050565b600061341c613417846133d8565b613192565b9050828152602081018484840111156134385761343761312d565b5b6134438482856131de565b509392505050565b600082601f8301126134605761345f613128565b5b8135613470848260208601613409565b91505092915050565b600080600080600060a0868803121561349557613494612e2d565b5b60006134a388828901612f0d565b95505060206134b488828901612f0d565b945050604086013567ffffffffffffffff8111156134d5576134d4612e32565b5b6134e1888289016133aa565b935050606086013567ffffffffffffffff81111561350257613501612e32565b5b61350e888289016133aa565b925050608086013567ffffffffffffffff81111561352f5761352e612e32565b5b61353b8882890161344b565b9150509295509295909350565b600067ffffffffffffffff82111561356357613562613132565b5b602082029050602081019050919050565b600061358761358284613548565b613192565b905080838252602082019050602084028301858111156135aa576135a961333c565b5b835b818110156135d357806135bf8882612f0d565b8452602084019350506020810190506135ac565b5050509392505050565b600082601f8301126135f2576135f1613128565b5b8135613602848260208601613574565b91505092915050565b6000806040838503121561362257613621612e2d565b5b600083013567ffffffffffffffff8111156136405761363f612e32565b5b61364c858286016135dd565b925050602083013567ffffffffffffffff81111561366d5761366c612e32565b5b613679858286016133aa565b9150509250929050565b600081519050919050565b600082825260208201905092915050565b6000819050602082019050919050565b60006136bb838361301d565b60208301905092915050565b6000602082019050919050565b60006136df82613683565b6136e9818561368e565b93506136f48361369f565b8060005b8381101561372557815161370c88826136af565b9750613717836136c7565b9250506001810190506136f8565b5085935050505092915050565b6000602082019050818103600083015261374c81846136d4565b905092915050565b60006040820190506137696000830185612e9a565b6137766020830184612e9a565b9392505050565b60006020828403121561379357613792612e2d565b5b60006137a184828501612f0d565b91505092915050565b6000819050919050565b6137bd816137aa565b81146137c857600080fd5b50565b6000813590506137da816137b4565b92915050565b600080fd5b60008083601f8401126137fb576137fa613128565b5b8235905067ffffffffffffffff811115613818576138176137e0565b5b6020830191508360018202830111156138345761383361333c565b5b9250929050565b6000806000806060858703121561385557613854612e2d565b5b6000613863878288016137cb565b945050602061387487828801612e58565b935050604085013567ffffffffffffffff81111561389557613894612e32565b5b6138a1878288016137e5565b925092505092959194509250565b6138b881612fe7565b81146138c357600080fd5b50565b6000813590506138d5816138af565b92915050565b600080604083850312156138f2576138f1612e2d565b5b600061390085828601612f0d565b9250506020613911858286016138c6565b9150509250929050565b613924816137aa565b82525050565b600060208201905061393f600083018461391b565b92915050565b60006020828403121561395b5761395a612e2d565b5b600082013567ffffffffffffffff81111561397957613978612e32565b5b613985848285016133aa565b91505092915050565b600081519050919050565b600082825260208201905092915050565b6000819050602082019050919050565b6040820160008201516139d0600085018261301d565b5060208201516139e3602085018261301d565b50505050565b60006139f583836139ba565b60408301905092915050565b6000602082019050919050565b6000613a198261398e565b613a238185613999565b9350613a2e836139aa565b8060005b83811015613a5f578151613a4688826139e9565b9750613a5183613a01565b925050600181019050613a32565b5085935050505092915050565b60006020820190508181036000830152613a868184613a0e565b905092915050565b60008060408385031215613aa557613aa4612e2d565b5b6000613ab385828601612f0d565b9250506020613ac485828601612f0d565b9150509250929050565b600080600080600060a08688031215613aea57613ae9612e2d565b5b6000613af888828901612f0d565b9550506020613b0988828901612f0d565b9450506040613b1a88828901612e58565b9350506060613b2b88828901612e58565b925050608086013567ffffffffffffffff811115613b4c57613b4b612e32565b5b613b588882890161344b565b9150509295509295909350565b7f455243313135353a2061646472657373207a65726f206973206e6f742061207660008201527f616c6964206f776e657200000000000000000000000000000000000000000000602082015250565b6000613bc1602a83613081565b9150613bcc82613b65565b604082019050919050565b60006020820190508181036000830152613bf081613bb4565b9050919050565b7f4e487b7100000000000000000000000000000000000000000000000000000000600052602260045260246000fd5b60006002820490506001821680613c3e57607f821691505b602082108103613c5157613c50613bf7565b5b50919050565b7f4974656d3a204572726f72000000000000000000000000000000000000000000600082015250565b6000613c8d600b83613081565b9150613c9882613c57565b602082019050919050565b60006020820190508181036000830152613cbc81613c80565b9050919050565b7f4e487b7100000000000000000000000000000000000000000000000000000000600052601160045260246000fd5b6000613cfd82612e37565b91507fffffffffffffffffffffffffffffffffffffffffffffffffffffffffffffffff8203613d2f57613d2e613cc3565b5b600182019050919050565b7f455243313135353a2063616c6c6572206973206e6f7420746f6b656e206f776e60008201527f6572206e6f7220617070726f7665640000000000000000000000000000000000602082015250565b6000613d96602f83613081565b9150613da182613d3a565b604082019050919050565b60006020820190508181036000830152613dc581613d89565b9050919050565b7f455243313135353a206163636f756e747320616e6420696473206c656e67746860008201527f206d69736d617463680000000000000000000000000000000000000000000000602082015250565b6000613e28602983613081565b9150613e3382613dcc565b604082019050919050565b60006020820190508181036000830152613e5781613e1b565b9050919050565b7f4e487b7100000000000000000000000000000000000000000000000000000000600052603260045260246000fd5b7f4d7573742062652070726f706f736564206f776e657200000000000000000000600082015250565b6000613ec3601683613081565b9150613ece82613e8d565b602082019050919050565b60006020820190508181036000830152613ef281613eb6565b9050919050565b7f536f75726365206d75737420626520746865206f7261636c65206f662074686560008201527f2072657175657374000000000000000000000000000000000000000000000000602082015250565b6000613f55602883613081565b9150613f6082613ef9565b604082019050919050565b60006020820190508181036000830152613f8481613f48565b9050919050565b6000819050919050565b6000613fa082613f8b565b9150613fab83613f8b565b9250828203905081811260008412168282136000851215161715613fd257613fd1613cc3565b5b92915050565b6000613fe382612e37565b9150613fee83612e37565b925082820390508181111561400657614005613cc3565b5b92915050565b600060608201905061402160008301866132a6565b61402e6020830185612e9a565b61403b6040830184612ff3565b949350505050565b7f4f6e6c792063616c6c61626c65206279206f776e657200000000000000000000600082015250565b6000614079601683613081565b915061408482614043565b602082019050919050565b600060208201905081810360008301526140a88161406c565b9050919050565b7f455243313135353a206d696e7420746f20746865207a65726f2061646472657360008201527f7300000000000000000000000000000000000000000000000000000000000000602082015250565b600061410b602183613081565b9150614116826140af565b604082019050919050565b6000602082019050818103600083015261413a816140fe565b9050919050565b600061414c82612e37565b915061415783612e37565b925082820190508082111561416f5761416e613cc3565b5b92915050565b7f455243313135353a2069647320616e6420616d6f756e7473206c656e6774682060008201527f6d69736d61746368000000000000000000000000000000000000000000000000602082015250565b60006141d1602883613081565b91506141dc82614175565b604082019050919050565b60006020820190508181036000830152614200816141c4565b9050919050565b7f455243313135353a207472616e7366657220746f20746865207a65726f20616460008201527f6472657373000000000000000000000000000000000000000000000000000000602082015250565b6000614263602583613081565b915061426e82614207565b604082019050919050565b6000602082019050818103600083015261429281614256565b9050919050565b7f455243313135353a20696e73756666696369656e742062616c616e636520666f60008201527f72207472616e7366657200000000000000000000000000000000000000000000602082015250565b60006142f5602a83613081565b915061430082614299565b604082019050919050565b60006020820190508181036000830152614324816142e8565b9050919050565b6000604082019050818103600083015261434581856136d4565b9050818103602083015261435981846136d4565b90509392505050565b7f455243313135353a2073657474696e6720617070726f76616c2073746174757360008201527f20666f722073656c660000000000000000000000000000000000000000000000602082015250565b60006143be602983613081565b91506143c982614362565b604082019050919050565b600060208201905081810360008301526143ed816143b1565b9050919050565b7f4e487b7100000000000000000000000000000000000000000000000000000000600052601260045260246000fd5b600061442e82612e37565b915061443983612e37565b925082614449576144486143f4565b5b828204905092915050565b600061445f82612e37565b915061446a83612e37565b92508261447a576144796143f4565b5b828206905092915050565b7f43616e6e6f74207472616e7366657220746f2073656c66000000000000000000600082015250565b60006144bb601783613081565b91506144c682614485565b602082019050919050565b600060208201905081810360008301526144ea816144ae565b9050919050565b600081519050919050565b600082825260208201905092915050565b6000614518826144f1565b61452281856144fc565b9350614532818560208601613092565b61453b816130bc565b840191505092915050565b600060a08201905061455b60008301886132a6565b61456860208301876132a6565b6145756040830186612e9a565b6145826060830185612e9a565b8181036080830152614594818461450d565b90509695505050505050565b6000815190506145af81612f8e565b92915050565b6000602082840312156145cb576145ca612e2d565b5b60006145d9848285016145a0565b91505092915050565b60008160e01c9050919050565b600060033d111561460e5760046000803e61460b6000516145e2565b90505b90565b600060443d1061469e57614623612e23565b60043d036004823e80513d602482011167ffffffffffffffff8211171561464b57505061469e565b808201805167ffffffffffffffff811115614669575050505061469e565b80602083010160043d03850181111561468657505050505061469e565b61469582602001850186613161565b82955050505050505b90565b7f455243313135353a207472616e7366657220746f206e6f6e204552433131353560008201527f526563656976657220696d706c656d656e746572000000000000000000000000602082015250565b60006146fd603483613081565b9150614708826146a1565b604082019050919050565b6000602082019050818103600083015261472c816146f0565b9050919050565b7f455243313135353a204552433131353552656365697665722072656a6563746560008201527f6420746f6b656e73000000000000000000000000000000000000000000000000602082015250565b600061478f602883613081565b915061479a82614733565b604082019050919050565b600060208201905081810360008301526147be81614782565b9050919050565b600060a0820190506147da60008301886132a6565b6147e760208301876132a6565b81810360408301526147f981866136d4565b9050818103606083015261480d81856136d4565b90508181036080830152614821818461450d565b90509695505050505050565b61483681612f62565b82525050565b600061010082019050614852600083018b6132a6565b61485f602083018a612e9a565b61486c604083018961391b565b61487960608301886132a6565b614886608083018761482d565b61489360a0830186612e9a565b6148a060c0830185612e9a565b81810360e08301526148b2818461450d565b90509998505050505050505050565b6000819050919050565b60006148e66148e16148dc84612ec4565b6148c1565b612ec4565b9050919050565b60006148f8826148cb565b9050919050565b600061490a826148ed565b9050919050565b60008160601b9050919050565b600061492982614911565b9050919050565b600061493b8261491e565b9050919050565b61495361494e826148ff565b614930565b82525050565b6000819050919050565b61497461496f82612e37565b614959565b82525050565b60006149868285614942565b6014820191506149968284614963565b6020820191508190509392505050565b60006060820190506149bb60008301866132a6565b6149c86020830185612e9a565b81810360408301526149da818461450d565b9050949350505050565b6000815190506149f3816138af565b92915050565b600060208284031215614a0f57614a0e612e2d565b5b6000614a1d848285016149e4565b91505092915050565b7f756e61626c6520746f207472616e73666572416e6443616c6c20746f206f726160008201527f636c650000000000000000000000000000000000000000000000000000000000602082015250565b6000614a82602383613081565b9150614a8d82614a26565b604082019050919050565b60006020820190508181036000830152614ab181614a75565b9050919050565b6000614ac382612e37565b9150614ace83612e37565b9250828202614adc81612e37565b91508282048414831517614af357614af2613cc3565b5b5092915050565b60008160011c9050919050565b6000808291508390505b6001851115614b5157808604811115614b2d57614b2c613cc3565b5b6001851615614b3c5780820291505b8081029050614b4a85614afa565b9450614b11565b94509492505050565b600082614b6a5760019050614c26565b81614b785760009050614c26565b8160018114614b8e5760028114614b9857614bc7565b6001915050614c26565b60ff841115614baa57614ba9613cc3565b5b8360020a915084821115614bc157614bc0613cc3565b5b50614c26565b5060208310610133831016604e8410600b8410161715614bfc5782820a905083811115614bf757614bf6613cc3565b5b614c26565b614c098484846001614b07565b92509050818404811115614c2057614c1f613cc3565b5b81810290505b9392505050565b6000614c3882612e37565b9150614c4383612e37565b9250614c707fffffffffffffffffffffffffffffffffffffffffffffffffffffffffffffffff8484614b5a565b90509291505056fe687474703a2f2f7777772e72616e646f6d6e756d6265726170692e636f6d2f6170692f76312e302f72616e646f6d3f6d696e3d313030266d61783d3230303026636f756e743d31a2646970667358221220f04e8d11a21ae946ea03fb2c317f548f2c17372243ca0142474ac2b5ea08066364736f6c6343000811003368747470733a2f2f697066732e696f2f697066732f62616679626569686a6a6b77647278786a6e757765766c7174716d683369656763616463333273696f34776d6f37627632676266333471733334612f7b69647d2e6a736f6e",
  "linkReferences": {},
  "deployedLinkReferences": {}
}